:020000040800F2
:1000000000000220B9020008BF020008C302000875
:1000100035030008390300088103000800000000D0
:1000200000000000000000000000000011110008A6
:10003000CD03000800000000B1110008F511000810
:10004000E5030008E5030008E5030008E5030008F0
:10005000E5030008E5030008E5030008E5030008E0
:10006000E5030008E5030008E5030008E5030008D0
:10007000E5030008E5030008E5030008E5030008C0
:10008000E5030008E5030008E5030008E5030008B0
:10009000E5030008E5030008E5030008E5030008A0
:1000A000E5030008E5030008E5030008E503000890
:1000B000E5030008E5030008E5030008E503000880
:1000C000E5030008E5030008E5030008E503000870
:1000D000E5030008E5030008E5030008E503000860
:1000E000E5030008E5030008E5030008E503000850
:1000F000E5030008E5030008E5030008E503000840
:10010000E5030008E5030008E5030008E50300082F
:10011000E5030008E5030008E5030008E50300081F
:10012000E5030008E5030008E5030008E50300080F
:10013000E5030008E5030008E5030008E5030008FF
:10014000E5030008E5030008E5030008E5030008EF
:10015000E5030008E5030008E5030008E5030008DF
:10016000E5030008E5030008E5030008E5030008CF
:10017000E5030008E5030008E503000800000000AF
:10018000E5030008E503000800B583B000F06AFE4F
:10019000384B394A1360394A1360394900E0214627
:1001A000384B99420BD20A684B6801F10C048868FD
:1001B0009842F4D952F8041B43F8041BF8E72E4B7D
:1001C0001A68314B9A4200D0FEE72C4B1A682F4B2D
:1001D0009A42F9D1274B2E4A13602E4A13602E4AB9
:1001E00005E0002043F8040B9A42FAD80A462B4B4C
:1001F0009A4204D2114651F8083B5268F4E7244B66
:100200001B6813B9234B1B6803B1FEE702F02AFCFD
:10021000694601A800F09AFD214C224BE41AA41073
:10022000002504E01F4B53F8253098470135AC42B8
:10023000F8DC1D4C1D4BE41AA410002504E01B4BF8
:1002400053F8253098470135AC42F8DC0099019805
:1002500002F0CEFC0546164C164BE41AA41004E03E
:10026000013C144B53F824309847002CF8DC284606
:1002700000F03EFDBABADECA00000020180E0020D1
:10028000E8030008000400087856341232547698C7
:10029000941D0020C820002000040008100400085D
:1002A00010040008100400081404000810040008DA
:1002B000140400081404000808B5FFF765FF00BE29
:1002C000FEE71EF0040F0CBFEFF30880EFF3098088
:1002D0007146414A10472DE9F04182B004460D466F
:1002E000124B5F6BD3F838809E6A1B6B13F0020FC2
:1002F00003D00E4BDB6A002B0BDB0D4800F054FDE6
:10030000009543463A463146204600F0B7FD00BE10
:10031000FEE74BF6AB6100F02BFE0028EDD0034B5F
:100320004FF00042DA6202B0BDE8F08100ED00E07B
:10033000BC62000800BEFEE71EF0040F0CBFEFF326
:100340000880EFF309807146244A10472DE9F041F7
:1003500082B004460D46084B5F6BD3F838809E6A26
:10036000064800F021FD009543463A4631462046B6
:1003700000F084FD00BEFEE700ED00E0CC62000866
:100380001EF0040F0CBFEFF30880EFF309807146F5
:10039000134A10472DE9F04182B004460D46084B40
:1003A0005F6BD3F838809E6A064800F0FDFC00952C
:1003B00043463A463146204600F060FD00BEFEE767
:1003C00000ED00E0D862000800BEFEE700BEFEE7D8
:1003D00000BEFEE770470000D70200084D0300088A
:0803E0009503000800BEFEE7D2
:1003E800A0670008000000201C0E0020A06700087D
:1003F8000000001000000010941D0020CC200020F8
:0C04080000000010000000104D2C000847
:1004200010B50446074B1868074BA3FB0030800942
:1004300000F090F8002221464FF0FF3000F044F821
:10044000002010BD0C000020D34D621008B50B4BEE
:100450001A6842F400721A601A6842F480621A60E4
:100460001A6842F480721A60032000F00FF80F201F
:10047000FFF7D6FF02F0A2FC002008BD003C0240BE
:10048000014B1868704700BF7420002010B5044667
:10049000C31E042B0FD80A4AD36823F4E0631B045D
:1004A0001B0C240204F4E064234343F0BF6343F4D1
:1004B0000033D36010BDA421024800F06BFCEAE7D2
:1004C00000ED00E0AC60000870B505460C4616462D
:1004D0000F2A25D80F2C28D81B4BDB68C3F3022327
:1004E000C3F10701042928BF04211A1D062A21D9B6
:1004F000033B4FF0FF3202FA01F124EA01049C4071
:1005000002FA03F326EA03063443002D14DB240128
:10051000E4B205F1604505F5614585F8004370BD1D
:10052000BC210A4800F036FCD4E7BD21074800F0A2
:1005300031FCD1E70023DCE705F00F052401E4B22C
:10054000034B5C55EBE700BF00ED00E0AC6000083A
:1005500014ED00E00138B0F1807F0AD2064B5860FC
:10056000064AF02182F823100020986007221A60C2
:1005700070470120704700BF10E000E000ED00E090
:1005800010B50446042800D038B9042C0BD0094A11
:10059000136823F00403136010BD40F2B311064842
:1005A00000F0F8FBF1E7034A136843F0040313601B
:1005B000F2E700BF10E000E0AC60000830B583B0A7
:1005C000044603680F2B29D8236813F0010F3DD090
:1005D0006368012B01D9052B25D1A24B9B6803F041
:1005E0000C03042B29D09F4B9B6803F00C03082BB2
:1005F0001ED022799C4B1A706368002B50D0FFF7F5
:100600003FFF0546974B1B6813F4003F1ED1FFF7D1
:1006100037FF401B6428F5D90320E3E1F521934817
:1006200000F0B8FBD0E7FA21904800F0B3FBD4E724
:100630008C4B5B6813F4800FDBD08A4B1B6813F480
:10064000003F03D06368002B00F0C781236813F0DC
:10065000020F5CD0E368012B31D823691F2B34D8FB
:10066000804B9B6813F00C0F3AD07E4B9B6803F0D5
:100670000C03082B2FD0E368002B73D07C4B012296
:100680001A60FFF7FDFE0546764B1B6813F0020F5C
:1006900059D1FFF7F5FE401B0228F5D90320A1E14F
:1006A000FFF7EEFE05466F4B1B6813F4003FCDD0FD
:1006B000FFF7E6FE401B6428F5D9032092E14FF4D2
:1006C00096716A4800F066FBC7E740F22D11674853
:1006D00000F060FBC4E7634B5B6813F4800FCAD182
:1006E000604B1B6813F0020F03D0E368012B40F04E
:1006F00076815C48036823F0F8032169F82292FAB6
:10070000A2F2B2FA82F201FA02F213430360236802
:1007100013F0080F50D06369012B35D86369002BA3
:1007200038D0544B01221A60FFF7AAFE05464D4B04
:100730005B6F13F0020F3FD1FFF7A2FE401B0228B0
:10074000F5D903204EE14748036823F0F8032169F7
:10075000F82292FAA2F2B2FA82F201FA02F21343FA
:100760000360D4E7424B00221A60FFF789FE05467A
:100770003C4B1B6813F0020FC9D0FFF781FE401BF2
:100780000228F5D903202DE140F26D11374800F021
:1007900001FBC3E7374B00221A60FFF771FE0546E5
:1007A000304B5B6F13F0020F06D0FFF769FE401B62
:1007B0000228F5D9032015E1236813F0040F5FD058
:1007C000A368012B01D9052B1FD100230193254BD1
:1007D0001A6C42F080521A641B6C03F08053019330
:1007E000019B254A136843F480731360FFF748FEAA
:1007F0000546214B1B6813F4807F0CD1FFF740FEA8
:10080000401B0228F5D90320ECE040F2971117486D
:1008100000F0C0FAD9E7227A184B1A70A36883B1A6
:10082000FFF72EFE05460F4B1B6F13F0020F27D16B
:10083000FFF726FE401B41F288339842F3D903208C
:10084000D0E0FFF71DFE0546064B1B6F13F0020FAD
:1008500016D0FFF715FE401B41F288339842F3D9BA
:100860000320BFE00038024002380240E060000888
:1008700000004742800E474200700040703802403E
:10088000A369022B39D8A369002B00F0AA80574A2C
:10089000926802F00C02082A00F0A680022B40F0B9
:1008A0008880E36913B1B3F5800F2CD1236A3F2B05
:1008B0002FD8636A323BB3F5BF7F30D8A36A022BCF
:1008C00005D0042B03D0062B01D0082B2DD1E36AD1
:1008D000043B0B2B2FD8464B00221A60FFF7D0FDAC
:1008E0000546424B1B6813F0007F2AD0FFF7C8FD76
:1008F000401B0228F5D9032074E04FF4E6713D480F
:1009000000F048FABFE740F2D5113A4800F042FA49
:10091000CCE74FF4EB71374800F03CFAC9E740F2FE
:10092000D711344800F036FAC8E74FF4EC7131487B
:1009300000F030FACBE740F2D9112E4800F02AFA45
:10094000C9E7E369226A1343616A47F6C07292FA03
:10095000A2F2B2FA82F201FA02F21343A26A520838
:10096000013A4FF4403191FAA1F1B1FA81F18A4094
:100970001343E16A4FF0706292FAA2F2B2FA82F285
:1009800001FA02F21343194A5360194B01221A600B
:10099000FFF776FD0446154B1B6813F0007F06D168
:1009A000FFF76EFD001B0228F5D903201AE0002096
:1009B00018E00F4B00221A60FFF762FD04460B4B54
:1009C0001B6813F0007F06D0FFF75AFD001B0228BA
:1009D000F5D9032006E0002004E0012002E0012018
:1009E00000E0002003B030BD0120FBE700380240EA
:1009F00060004742E0600008214B9B6803F00C0355
:100A0000042B38D0082B38D11D4B586800F03F001C
:100A10005B6813F4800F1ED01A4AB2FBF0F2184B39
:100A2000586847F6C073184093FAA3F3B3FA83F3F8
:100A3000D84000FB02F0124B5B6803F440334FF4E4
:100A4000403292FAA2F2B2FA82F2D34001335B0052
:100A5000B0FBF3F070470C4AB2FBF0F2084B586859
:100A600047F6C073184093FAA3F3B3FA83F3D84060
:100A700000FB02F0DFE7034870470348704700BF00
:100A80000038024000127A000024F40070B50446D9
:100A90000D460368013B0E2B5ED8072D62D88C4BA8
:100AA0001B6803F00F03AB4208D2EBB2884A137005
:100AB000136803F00F03AB4240F00481236813F086
:100AC000020F18D0A3687BB1802B0DD0902B0BD0D8
:100AD000A02B09D0B02B07D0C02B05D0D02B03D032
:100AE000E02B01D0F02B43D17A4A936823F0F00336
:100AF000A1680B439360236813F0010F7FD06368F4
:100B0000032B3BD86368012B3ED09A1E012A42D9A1
:100B1000704A126812F0020F00F0D6806D498A68A0
:100B200022F0030213438B60FFF7AAFC06466368BA
:100B3000012B37D0022B44D0032B51D0654B9B683F
:100B400013F00C0F5BD0FFF79BFC801B41F2883346
:100B50009842F3D90320A8E040F237215E4800F024
:100B600019F99AE74FF40E715B4800F013F996E714
:100B700040F24F21584800F00DF9B5E740F25621F8
:100B8000554800F007F9BDE7524A126812F4003FD9
:100B9000C4D1012089E04F4A126812F0007FBDD114
:100BA000012082E04B4B9B6803F00C03042B26D002
:100BB000FFF766FC831B41F288329342F2D903208F
:100BC00073E0444B9B6803F00C03082B17D0FFF72E
:100BD00057FC801B41F288339842F2D9032064E02D
:100BE0003C4B9B6803F00C030C2B08D0FFF748FC30
:100BF000801B41F288339842F2D9032055E0344BF0
:100C00001B6803F00F03AB4207D9EAB2304B1A70EE
:100C10001B6803F00F03AB4258D1236813F0040F95
:100C200014D0E3685BB1B3F5805F08D0B3F5A05F83
:100C300005D0B3F5C05F02D0B3F5E05F36D1254AE9
:100C4000936823F4E053E1680B439360236813F047
:100C5000080F15D023695BB1B3F5805F08D0B3F5F9
:100C6000A05F05D0B3F5C05F02D0B3F5E05F23D13C
:100C7000184A936823F46043216943EAC1039360EF
:100C8000FFF7BAFE134B9B6803F0F003F02292FAD1
:100C9000A2F2B2FA82F2D340104AD35CD840104B91
:100CA00018600F20FFF7BCFB002070BD4FF42D71C2
:100CB000094800F06FF8C2E740F2BB21064800F097
:100CC00069F8D5E70120F0E70120EEE70120ECE725
:100CD000003C024000380240E0600008106100085B
:100CE0000C000020014B1868704700BF0C0000206A
:100CF000FEE7000008B5034800F070F80120FFF798
:100D0000F7FF00BF2061000808B503460C4A1268CF
:100D10005AB10B4A1068033323F003030344094A12
:100D2000934206D8064A136008BD054A0649116079
:100D3000EFE702F0FBFC0C2303604FF0FF30F3E71A
:100D4000981D002000FC0120CC200020012303601E
:100D5000014B0B60704700BF0400002000B583B05A
:100D60000C461946134652B1074A53B101930092FB
:100D700023460246054800F017F8FFF7BBFF044A78
:100D8000F3E7034BF2E700BF346100084461000859
:100D9000A863000808B50A460146024800F004F8B6
:100DA000FFF7A8FF746100080FB400B583B004AB6F
:100DB00053F8042B01938021074803F0A3F900287E
:100DC00004DC03B05DF804EB04B070470146024850
:100DD00000F044F8F5E700BFA01D002010B5044660
:100DE00003F05CF90146204600F038F80121024882
:100DF00000F034F810BD00BF646300082DE9F04333
:100E000085B004460F46435633BB04252846214689
:100E1000ABBE0446384605B0BDE8F08314F9010BBB
:100E200004AA1A4402F8100C0133AB42F6D304AA08
:100E30001344002203F8102C4FF00408E946404602
:100E40004946ABBE8046761B002EE3D03546102EB9
:100E500028BF10250023E8E70E46F5E708B5FFF7A1
:100E6000CDFF08BD08B500F093F8024A024B9A6026
:100E700008BD00BF0000000800ED00E0F8B5044622
:100E80000D4617461E462748FFF78EFF2168264865
:100E9000FFF78AFF61682548FFF786FFA1682448AD
:100EA000FFF782FFE1682348FFF77EFF21692248B0
:100EB000FFF77AFF61692148FFF776FFA1692048B3
:100EC000FFF772FFE1691F48FFF76EFF1E48FFF74B
:100ED0006BFF29461D48FFF767FF1D4CE16A1D485F
:100EE000FFF762FF216B1C48FFF75EFFE16B1B48B9
:100EF000FFF75AFF15F0800F0AD115F4004F0CD1FF
:100F00001748FFF751FF06991648FFF74DFFF8BD48
:100F100039461548FFF748FFEFE731461348FFF71A
:100F200043FFEDE7A0610008B0610008C061000860
:100F3000D0610008E0610008F0610008006200086C
:100F40001062000820620008306200083C6200085D
:100F500000ED00E04C6200085C6200086C62000872
:100F60009C620008A46200087C6200088C62000891
:100F700083691A888A4201D0002070470268033AC8
:100F8000012A01D900207047023383610120704794
:100F90000C4B1A6842F001021A60002199601A682D
:100FA00022F0847222F480321A60074A5A601A686A
:100FB00022F480221A60D960044B4FF000629A60DC
:100FC000704700BF003802401030002400ED00E000
:100FD000224B9B6803F00C03042B14D0082B16D073
:100FE0001BB11F4B1F4A1A6002E01D4B1D4A1A60BD
:100FF0001A4B9B68C3F303131B4AD15C184A13684E
:10100000CB4013607047164B184A1A60F0E7134B39
:101010005A685B6803F03F0312F4800F13D0134A41
:10102000B2FBF3F20D4B5B68C3F3881303FB02F3CF
:101030000A4A5268C2F3014201325200B3FBF2F392
:10104000074A1360D4E7074AB2FBF3F2034B5B682D
:10105000C3F3881303FB02F3EAE700BF0038024042
:101060000C0000200024F400E862000800127A005E
:1010700040B14FF0500383F31188BFF36F8FBFF37C
:101080004F8FFEE77047000082B0002301930D4BA5
:101090001B68B3F1FF3F08D04FF0500383F3118872
:1010A000BFF36F8FBFF34F8FFEE74FF0500383F313
:1010B0001188BFF36F8FBFF34F8F019B002BFCD0C4
:1010C00002B070471000002006480068006880F3F6
:1010D000088862B661B6BFF34F8FBFF36F8F00DF32
:1010E00000BF000008ED00E04FF0807340F8043CC2
:1010F00021F0010140F8081C034B40F80C3C40F87B
:10110000202C4038704700BF891000080000000004
:10111000074B19680868B0E8F00F80F30988BFF33F
:101120006F8F4FF0000080F311884EF00D0E704766
:10113000201E00204FF0500383F31188BFF36F8F00
:10114000BFF34F8F0A4A136801331360012B00D09D
:101150007047084B1B6813F0FF0FF9D04FF0500396
:1011600083F31188BFF36F8FBFF34F8FFEE700BF8C
:101170001000002004ED00E0094B1B6843B94FF05C
:10118000500383F31188BFF36F8FBFF34F8FFEE7D8
:10119000013B034A13600BB983F31188704700BF0A
:1011A000100000200000000000000000000000000F
:1011B000EFF30980BFF36F8F0D4B1A6820E9F00F32
:1011C00010602DE908404FF0500080F3118800F0C6
:1011D00087FF4FF0000080F31188BDE808401968D0
:1011E0000868B0E8F00F80F30988BFF36F8F70478D
:1011F000201E002008B54FF0500383F31188BFF381
:101200006F8FBFF34F8F00F033FE18B1034B4FF0D9
:1012100080521A60002383F3118808BD04ED00E0BA
:10122000084A0023136008490B60084B1B680849F3
:10123000A1FB03139B09013B06490B6007231360C5
:10124000704700BF10E000E018E000E00C00002054
:10125000D34D621014E000E010B50B4B1A6842F455
:1012600070021A601A6842F070421A60FFF7D8FFE5
:101270000024064B1C60FFF727FF00F031FFFFF74B
:1012800003FF204610BD00BF20ED00E0100000204D
:10129000EFF305830F2B01D9084A9B5C084B1B68B1
:1012A00013F4E06F08D04FF0500383F31188BFF3BD
:1012B0006F8FBFF34F8FFEE7704700BFF0E300E092
:1012C0000CED00E000F1080343604FF0FF32826054
:1012D000C36003610023036070470023036170470C
:1012E00043684B609A688A6051609960086103683E
:1012F00001330360704730B40D68B5F1FF3F11D082
:1013000000F108031C465B681A68AA42FAD96368B0
:101310004B6099608C606160086103680133036011
:1013200030BC70470469F2E70369416882688A60EB
:10133000416851605A68824206D0002202611A68F0
:10134000013A1A601868704782685A60F5E710B56C
:101350000446FFF7EFFEA26BE36B9A4204D0002431
:10136000FFF70AFF204610BD0124F9E710B5044637
:10137000FFF7E0FEA36B23B90124FFF7FDFE204633
:1013800010BD0024F9E770B504461546866B026C63
:101390005AB903681BB100200136A66370BD80688E
:1013A00000F0E2FF0023A360F6E76DB9406802F0A9
:1013B000C3F9226C636813446360A268934219D333
:1013C000236863602846E7E7C06802F0B5F9226C3D
:1013D0005142E3689B1AE3602268934202D2A368F9
:1013E0000B44E360022D01D00020D5E726B1013E79
:1013F0000020D1E72846CFE70020CDE70346026C66
:101400006AB110B50846D9681144D9609C68A142F8
:1014100001D31968D960D96802F08EF910BD704700
:1014200038B50546FFF786FE95F8454064B203E0FF
:1014300000F084FF013C64B2002C08DD6B6A33B11C
:1014400005F1240000F0E4FE0028F3D0F0E7FF23CC
:1014500085F84530FFF790FEFFF76CFE95F84440A5
:1014600064B203E000F06AFF013C64B2002C08DDC6
:101470002B6933B105F1100000F0CAFE0028F3D04B
:10148000F0E7FF2385F84430FFF776FE38BD000013
:1014900038B5E0B10D460446FFF74CFE2168E26B1B
:1014A000236C03FB0210A0600020A0636160013A7E
:1014B00002FB0313E360FF2384F8443084F84530D3
:1014C000EDB9236963B9FFF757FE012038BD4FF02E
:1014D000500383F31188BFF36F8FBFF34F8FFEE785
:1014E00004F1100000F094FE0028ECD0084B4FF0FF
:1014F00080521A60BFF34F8FBFF36F8FE3E704F1A1
:101500001000FFF7DFFE04F12400FFF7DBFEDAE74F
:1015100004ED00E038B51D46049C0B4649B9246033
:10152000E063236401212046FFF7B2FF84F84C50AA
:1015300038BD2260F4E740B94FF0500383F31188BF
:10154000BFF36F8FBFF34F8FFEE730B585B01C46FA
:10155000054653B192B189B94FF0500383F3118816
:10156000BFF36F8FBFF34F8FFEE74FF0500383F34E
:101570001188BFF36F8FBFF34F8FFEE76AB150231F
:101580000393039B502B13D04FF0500383F3118828
:10159000BFF36F8FBFF34F8FFEE70029EFD04FF0FF
:1015A000500383F31188BFF36F8FBFF34F8FFEE7B4
:1015B000039B012384F8463000949DF82030284690
:1015C000FFF7A8FF204605B030BD0000F0B585B09C
:1015D000019288B10E461D460446B1B1022D20D1BC
:1015E000E36B012B1DD04FF0500383F31188BFF341
:1015F0006F8FBFF34F8FFEE74FF0500383F31188D7
:10160000BFF36F8FBFF34F8FFEE7036C002BE5D066
:101610004FF0500383F31188BFF36F8FBFF34F8FE9
:10162000FEE700F091FE074658B9019B002B44D01D
:101630004FF0500383F31188BFF36F8FBFF34F8FC9
:10164000FEE7002739E02A4631462046FFF79BFE99
:10165000626A6AB938B13C4B4FF080521A60BFF3EE
:101660004F8FBFF36F8FFFF787FD012005B0F0BDEF
:1016700004F1240000F0CCFD0028F4D0324B4FF0F0
:1016800080521A60BFF34F8FBFF36F8FEBE7FFF706
:1016900073FD0020EAE702A800F000FE012719E030
:1016A000002384F8443021E0002384F8453023E00F
:1016B0002046FFF7B5FE00F071FCFFF73BFDA26B83
:1016C000E36B9A42BFD3022DBDD0019B002BDED02D
:1016D000002FE0D0FFF750FD00F0BCFBFFF72AFD24
:1016E00094F844305BB2B3F1FF3FD9D094F8453061
:1016F0005BB2B3F1FF3FD7D0FFF73EFD01A902A8CF
:1017000000F0D8FDC8B92046FFF721FE0028CFD051
:10171000019904F1100000F047FD2046FFF780FE1C
:1017200000F03CFC0028C8D1074B4FF080521A60F3
:10173000BFF34F8FBFF36F8FBFE72046FFF770FEF9
:1017400000F02CFC002091E704ED00E02DE9F843C7
:1017500090B1894690461F460446B1B1022F20D170
:10176000E36B012B1DD04FF0500383F31188BFF3BF
:101770006F8FBFF34F8FFEE74FF0500383F3118855
:10178000BFF36F8FBFF34F8FFEE7036C002BE5D0E5
:101790004FF0500383F31188BFF36F8FBFF34F8F68
:1017A000FEE7FFF775FDEFF311864FF0500383F36B
:1017B0001188BFF36F8FBFF34F8FA26BE36B9A4219
:1017C00006D3022F04D0002086F31188BDE8F883E9
:1017D00094F845506DB2A36B3A4649462046FFF750
:1017E000D2FDB5F1FF3F07D07F2D15D06B1C5BB24A
:1017F00084F845300120E7E7636A0BB90120E3E78D
:1018000004F1240000F004FD78B1B8F1000F0ED00F
:101810000120C8F80000D7E74FF0500383F3118888
:10182000BFF36F8FBFF34F8FFEE70120CCE701209E
:10183000CAE70000F0B585B0019290B10E460446AB
:10184000C1B100F081FD074600BB019B002B5CD0BD
:101850004FF0500383F31188BFF36F8FBFF34F8FA7
:10186000FEE74FF0500383F31188BFF36F8FBFF390
:101870004F8FFEE7036C002BE3D04FF0500383F350
:101880001188BFF36F8FBFF34F8FFEE700273CE057
:1018900031462046FFF7B2FD013DA563236923B918
:1018A000FFF76AFC012005B0F0BD04F1100000F064
:1018B000AFFC0028F4D0354B4FF080521A60BFF3D4
:1018C0004F8FBFF36F8FEBE7FFF756FC0020EAE77F
:1018D00002A800F0E3FC012721E0002384F8443053
:1018E00029E0002384F845302BE02046FFF798FDDF
:1018F00000F054FB09E02046FFF792FD00F04EFB9C
:101900002046FFF733FD00283DD1FFF713FCA56B00
:10191000002DBDD1019B002BD6D0002FD8D0FFF7D2
:101920002BFC00F097FAFFF705FC94F844305BB20B
:10193000B3F1FF3FD1D094F845305BB2B3F1FF3F34
:10194000CFD0FFF719FC01A902A800F0B3FC0028D2
:10195000D1D12046FFF70AFD0028C6D0019904F135
:10196000240000F021FC2046FFF75AFD00F016FB92
:101970000028CAD1054B4FF080521A60BFF34F8F39
:10198000BFF36F8FC1E700208DE700BF04ED00E0DB
:10199000002300E00133072B0BD8064A52F833200E
:1019A000002AF7D1034A42F8331002EBC303586010
:1019B000704770477C20002070B504460D461646DF
:1019C000FFF7B8FB94F844305BB2B3F1FF3F0DD0A2
:1019D00094F845305BB2B3F1FF3F0BD0FFF7CCFB7F
:1019E000A36B5BB12046FFF71BFD70BD002384F89D
:1019F0004430EDE7002384F84530EFE732462946CE
:101A000004F1240000F0E8FBECE70000074B1B6842
:101A10001B6823B9064B4FF0FF321A607047034B27
:101A20001B68DB681A68024B1A607047241E00208E
:101A3000CC1E00202DE9F04780460D4617469946FA
:101A4000089EDDF824A00A9C9200A521206B01F0DD
:101A500081FE236B07F18042013A03EB820727F0F6
:101A60000707002D39D00022092A07D8A956A31844
:101A700083F83410AB560BB10132F5E7002384F83C
:101A80003D30042E00D90426E662A6640025E564F4
:101A9000201DFFF722FC04F11800FFF71EFC246153
:101AA000C6F10506A66164620422294604F15000CD
:101AB00001F050FE0122294604F1540001F04AFED3
:101AC0004A4641463846FFF70FFB2060BAF1000F47
:101AD00001D0CAF80040BDE8F087002384F8343014
:101AE000CFE7000038B50024042C08D804EB8402AA
:101AF00093000E481844FFF7E5FB0134F4E70C4D62
:101B00002846FFF7DFFB0B4C2046FFF7DBFB0A48BC
:101B1000FFF7D8FB0948FFF7D5FB0948FFF7D2FBD1
:101B2000084B1D60084B1C6038BD00BF2C1E0020F8
:101B3000A41E0020B81E0020D81E0020041F002074
:101B4000F01E0020241E0020281E002010B5044690
:101B5000FFF7F0FA214A136801331360204B1B682A
:101B60005BB1204B1B686BB91D4B1B68DA6AE36ADB
:101B70009A4207D81A4B1C6004E0194B1C6013688A
:101B8000012B27D0184A1368013313602364E06ADD
:101B900001238340154A11680B43136000EB80005A
:101BA000211D134B03EB8000FFF79AFBFFF7E4FACC
:101BB0000C4B1B686BB10A4B1B68DA6AE36A9A42EA
:101BC00007D20C4B4FF080521A60BFF34F8FBFF318
:101BD0006F8F10BDFFF786FFD4E700BF901E002077
:101BE000201E0020EC1E00209C1E0020A01E0020B5
:101BF0002C1E002004ED00E010B5044690F855308E
:101C000063B1012B11D0022B0ED04FF0500383F3A0
:101C10001188BFF36F8FBFF34F8FFEE7006BFFF7A5
:101C200027FA2046FFF724FA10BDFFF721FAFBE759
:101C30000F4B1B68D3B110B5FFF77CFA0D4BDB6877
:101C4000DC68201DFFF770FB0B4A1368013B136033
:101C5000074A1368013B1360FFF78EFA2046FFF72F
:101C6000CBFF034B1B68002BE6D110BD704700BFB4
:101C7000941E0020041F0020901E002070B5044612
:101C80000D461D4B1E681D4B18680430FFF74CFBBA
:101C900050B91A4B1B68DA6A012303FA02F2184999
:101CA0000B6823EA02030B60B4F1FF3F0DD034440C
:101CB000124B1B685C60A64210D9124B18680F4B80
:101CC00019680431FFF717FB70BD002DEFD00B4BE7
:101CD000196804310C48FFF703FBF5E70B4B186854
:101CE000064B19680431FFF706FB094B1B68A3423A
:101CF000EAD9074B1C60E7E7181F0020201E0020D0
:101D0000A01E0020281E0020F01E0020241E0020FF
:101D1000CC1E002008B509E0084B4FF080521A6035
:101D2000BFF34F8FBFF36F8F00F0E7FFFFF780FF28
:101D3000034B1B68012BEFD8F6E700BF04ED00E072
:101D40002C1E002070B586B00B9D0C9C75B1B4B1F3
:101D500058260496049E582E1AD04FF0500383F351
:101D60001188BFF36F8FBFF34F8FFEE74FF0500323
:101D700083F31188BFF36F8FBFF34F8FFEE74FF0F0
:101D8000500383F31188BFF36F8FBFF34F8FFEE7CC
:101D9000049E2563022584F855500025039502947E
:101DA00005AD01950A9D0095FFF744FE2046FFF71B
:101DB000CDFE059806B070BD10B588B0002405941E
:101DC000069407AA06A905A800F0A2FF059B0293A6
:101DD000069B019300942346079A18491848FFF779
:101DE000B1FF58B100F080FB0346012B08D0B3F1DE
:101DF000FF3F1AD0134B1B6808B010BD0023F4E757
:101E00004FF0500383F31188BFF36F8FBFF34F8FF1
:101E10000D4B4FF0FF321A600C4B01221A600C4B35
:101E200000221A60FFF718FAE4E74FF0500383F33B
:101E30001188BFF36F8FBFF34F8FFEE7F862000882
:101E4000151D000814000020CC1E0020EC1E0020F0
:101E5000181F0020024A136801331360704700BF47
:101E6000981E0020014B1868704700BF181F002003
:101E7000F8B53F4B1B68002B70D13E4B1D680135F8
:101E80001D60C5B93C4B1B681B6843B14FF0500344
:101E900083F31188BFF36F8FBFF34F8FFEE7364A8E
:101EA0001168364B186810601960354A13680133A1
:101EB0001360FFF7ABFD334B1B68AB4241D90024E5
:101EC000314B1B68DB6A03EB83039A002F4B9B5853
:101ED000012B00D901242E4B1B68002B3BD02D4B2E
:101EE0001B68002B41D001243FE00124224B1B68DA
:101EF0001B6843B3204B1B68DB68DE6873689D4238
:101F000026D3371D3846FFF70FFAB36A1BB106F127
:101F10001800FFF709FAF36A01229A401E4908687F
:101F200002430A6003EB83039A00394617481044C2
:101F3000FFF7D6F9F26A144B1B68DB6A9A42D4D2D7
:101F4000D4E70024D2E70F4B4FF0FF321A60B7E717
:101F50000C4A1360B4E700F0CFFEC0E70C4A1368E8
:101F60000133136000F0C8FE00242046F8BD00BF16
:101F7000981E0020181F0020241E0020281E00206C
:101F8000D01E0020CC1E0020201E00202C1E002071
:101F9000D41E00201C1F0020A01E002038B5344B8A
:101FA0001B6843B94FF0500383F31188BFF36F8F61
:101FB000BFF34F8FFEE7FFF7BDF82D4B1A68013ACC
:101FC0001A601B68002B4DD12A4B1B680BB90024EB
:101FD00049E00024284B1B681BB3274BDB68DC68F7
:101FE00004F11800FFF7A0F9251D2846FFF79CF91A
:101FF000E06A01238340214A11680B43136000EB20
:10200000800029461E4B03EB8000FFF769F9E26A66
:102010001C4B1B68DB6A9A42DCD31B4B01221A6003
:10202000D8E70CB1FFF7F2FC184B1C6874B9164BDB
:102030001C68C4B1164B4FF080521A60BFF34F8F2B
:10204000BFF36F8F01240EE0013C07D0FFF710FFB4
:102050000028F9D00C4B01221A60F5E70B4B002247
:102060001A60E4E70024FFF787F8204638BD00BF78
:10207000981E0020901E0020D81E0020A01E0020C8
:102080002C1E0020201E00201C1F0020D41E00201B
:1020900004ED00E010B5A8B104460F4B1B6843B136
:1020A0004FF0500383F31188BFF36F8FBFF34F8F4F
:1020B000FEE7FFF7CFFE00212046FFF7DFFDFFF729
:1020C0006DFF38B9054B4FF080521A60BFF34F8F48
:1020D000BFF36F8F10BD00BF981E002004ED00E01D
:1020E0002C4B1B681BB12C4B01221A60704710B59A
:1020F000294B00221A60294B1B681B6B1A68B2F12E
:10210000A53F03D15A68B2F1A53F1BD0234B1868F5
:102110001968343100F0F2FD214B1B68B3FA83F3E8
:10212000DBB2C3F11F0303EB83018A001D498A5808
:102130008AB94FF0500383F31188BFF36F8FBFF359
:102140004F8FFEE79A68B2F1A53FDFD1DB68B3F1AC
:10215000A53FDBD1E0E7134903EB830082000A448B
:1021600050684068506003EB8304A20014460832B4
:102170001144884209D003EB83039A00094B1344AE
:102180005B68DA68054B1A6010BD4068054A224456
:102190005060F0E7981E00201C1F0020201E002029
:1021A000A01E00202C1E002058B110B50C46094B73
:1021B00019681831FFF79FF801212046FFF75EFDEF
:1021C00010BD4FF0500383F31188BFF36F8FBFF33F
:1021D0004F8FFEE7201E002038B570B10C46154623
:1021E0000A4B19681831FFF77BF80DB14FF0FF3437
:1021F00029462046FFF742FD38BD4FF0500383F3D8
:102200001188BFF36F8FBFF34F8FFEE7201E0020B2
:1022100038B5C368DC6824B304F118052846FFF715
:1022200083F8184B1B682BBB251D2846FFF77CF84D
:10223000E06A01238340144A11680B43136000EBEA
:1022400080002946114B03EB8000FFF749F8E26A52
:102250000F4B1B68DB6A9A4211D901200D4B1860A5
:102260000EE04FF0500383F31188BFF36F8FBFF37D
:102270004F8FFEE729460848FFF732F8E7E70020CE
:1022800038BD00BF981E0020A01E00202C1E00207C
:10229000201E00201C1F0020D81E0020034B1B689E
:1022A0000360034B1B684360704700BFD01E0020D3
:1022B000181F0020F8B5B8B10C460546E9B1FEF785
:1022C00039FF1C4B19686B68C81A2268B2F1FF3FCE
:1022D0002AD02F68184E3668B74217D08B4215D8CF
:1022E00000232360012420E04FF0500383F3118882
:1022F000BFF36F8FBFF34F8FFEE74FF0500383F3B1
:102300001188BFF36F8FBFF34F8FFEE7824203D870
:1023100000232360012408E05B1A1344236028464D
:10232000FFF7BCFF002400E00024FEF725FF204655
:10233000F8BD00BF181F0020D01E0020014B012255
:102340001A6070471C1F0020054B1B6833B1054BFA
:102350001B680BB1002070470220704701207047B6
:10236000EC1E0020981E0020002846D038B50446F8
:10237000244B1B68834208D04FF0500383F311882D
:10238000BFF36F8FBFF34F8FFEE7C36C43B94FF0BE
:10239000500383F31188BFF36F8FBFF34F8FFEE7B6
:1023A000013BC364C16A826C914228D00BB100200A
:1023B00038BD051D2846FEF7B7FF40B9E26A012384
:1023C00003FA02F210490B6823EA02030B60A06CC7
:1023D000E062C0F10503A361012404FA00F30A4A94
:1023E00011680B43136000EB80002946074B03EB99
:1023F0008000FEF775FF2046DAE7002070470020D6
:10240000D6E700BF201E0020A01E00202C1E0020AA
:10241000064B1A6813682BB90123036023B9D368EC
:10242000186870470023F8E700207047201F00203D
:1024300008B54160006191420CD8D21A83699A4272
:1024400001D3012008BD011D094B1868FEF753FF99
:102450000020F7E79A4201D2994206D2011D054BAE
:102460001868FEF748FF0020ECE70120EAE700BF0C
:10247000241F0020201F002030B583B0FEF75AFE35
:10248000114B1B681BB1FEF777FE03B030BD0F4D3B
:102490002846FEF717FF0E4C2046FEF713FF0D4BA4
:1024A0001D600D4B1C60002300930C4B0C4A0C214B
:1024B0000A20FFF740F8044B18600028E3D00949D0
:1024C000FFF766FADFE700BF1C200020A01F0020F6
:1024D000B41F0020201F0020241F0020CC1F00203C
:1024E000281F00200063000810B588B0FFF7C4FF64
:1024F000124B1B68CBB100240594069407AA06A9C9
:1025000005A800F00FFC059B0293069B0193022394
:1025100000932346079A0A490A48FFF713FC0A4A20
:10252000106010B1012008B010BD4FF0500383F3CC
:102530001188BFF36F8FBFF34F8FFEE71C20002081
:10254000086300083D28000820200020C0B110B515
:1025500084B014461A4603461648006838B3019101
:102560000294039305291CDCFFF7EEFE022810D02D
:1025700000231A4601A90F480068FFF727F814E066
:102580004FF0500383F31188BFF36F8FBFF34F8F6A
:10259000FEE70023069A01A906480068FFF716F82F
:1025A00003E0002301A9FFF7D1F804B010BD00201B
:1025B000FBE700BF1C20002070B582B01B4B1B68DE
:1025C0001A6862B3DB681E68DC68251D2846FEF7C2
:1025D000ABFE236A2046984794F8283013F0040F86
:1025E000ECD0A36933449E4207D26360246129463C
:1025F0000E4B1868FEF77FFEE0E7002100910B46C6
:1026000032462046FFF7A2FF0028D7D14FF05003F3
:1026100083F31188BFF36F8FBFF34F8FFEE7044A38
:10262000106802490860136002B070BD201F0020CE
:10263000241F002038B50546FFF714FC0446074B5D
:102640001B68834205D800232B60044B1C60204686
:1026500038BDFFF7B1FF01232B60F6E7C81F00204C
:1026600070B582B005460E46174B1B68DB68DC6808
:10267000201DFEF759FE94F8283013F0040F08D1FE
:1026800023F0010384F82830236A2046984702B0DB
:1026900070BDA1692B46324629442046FFF7C8FE8B
:1026A0000028F1D0002100910B462A462046FFF772
:1026B0004DFF0028E8D14FF0500383F31188BFF39A
:1026C0006F8FBFF34F8FFEE7201F002070B582B0E1
:1026D00006460C46FFF7BEFB01A8FFF7ABFF019BC8
:1026E00023BB05460CB9B04217D224B1114A126877
:1026F0001268CAB901242246711B0F4B1868FFF7F4
:102700005BF9FFF74BFC98B90C4B4FF080521A6005
:10271000BFF34F8FBFF36F8F0AE0FFF73FFC2946EF
:102720003046FFF79DFF03E01C46E4E7FFF736FC69
:1027300002B070BD241F00201C20002004ED00E02A
:1027400010B586B0002203A93B4B1868FFF772F85A
:1027500000286ED0039B002BF4DB059C636913B14A
:10276000201DFEF7E1FD02A8FFF764FF039B092B84
:10277000E8D8DFE803F005050530375005053037A8
:1027800094F8283043F0010384F82830049BA169B1
:10279000024619442046FFF74BFE0028D2D0236A98
:1027A0002046984794F8283013F0040FCAD0A26945
:1027B000002100910B46049802442046FFF7C6FE14
:1027C0000028BFD14FF0500383F31188BFF36F8F00
:1027D000BFF34F8FFEE794F8283023F0010384F80D
:1027E0002830AFE794F8283043F0010384F828300C
:1027F0000499A16131B10346024601442046FFF726
:1028000017FE9FE74FF0500383F31188BFF36F8FDC
:10281000BFF34F8FFEE794F8283013F0020F04D077
:1028200023F0010384F828308CE72046FEF720FCD3
:1028300088E706B010BD00BF1C20002000B583B0A3
:1028400001A8FFF7E5FD0199FFF740FFFFF778FFCB
:10285000F6E710B4016042600373012303FA02F249
:10286000826010BC704700002DE9F8430546002443
:1028700000E00134C72C09DC04EB4403514A52F850
:102880002310686800F00EFF0028F2D06E6804EB99
:1028900044034C4A52F823703946304600F0EEFEAD
:1028A00090B1304600F01CFF06460024C72C29DCFE
:1028B00004EB4403434A02EB83035968A86800F021
:1028C000F1FEF8B90134F1E7013C04EB44043D4B5F
:1028D00053F824804146304600F032FC044631462D
:1028E000384600F02DFC0146204600F0EFFE20B1F6
:1028F000384600F0F5FE0646D7E7404600F0F0FE09
:102900000646D2E7AF6804EB44032E4A02EB83038A
:10291000D3F804804146384600F0B0FE28B138466E
:1029200000F0DEFE0746002420E0013C04EB4404F6
:10293000244B03EB8404D4F804904946384600F055
:10294000FFFB04463946404600F0FAFB01462046AC
:1029500000F0BCFE20B1404600F0C2FE0746E2E7B0
:10296000484600F0BDFE0746DDE70134C72C24DCF5
:1029700004EB4403134A52F82380304600F096FCDF
:102980000146404600F07AFE0028EED004EB4403F6
:102990000C4A02EB8303D3F80480384600F086FC2F
:1029A0000146404600F06AFE0028DED004EB4404F5
:1029B000044B03EB8404A3682B60286800F090FEAE
:1029C000BDE8F8831800002030B595B000240194CC
:1029D000214B1A6C42F080521A641B6C03F0805336
:1029E0000193019B02941D4B1A6842F480421A60C5
:1029F0001B6803F480430293029B0123089309930D
:102A00004FF480030F93082310934FF4A87311938E
:102A100002251295072313930E9508A8FDF7CEFD06
:102A20000F230393049505944FF4A05306934FF49A
:102A300080530793052103A8FEF728F8FEF752F903
:102A4000074BA3FB00308009FDF784FD0420FDF750
:102A500097FD15B030BD00BF003802400070004047
:102A6000D34D621008B5FDF7F1FC0320FDF70EFD14
:102A7000FFF7AAFFFEF7ACFA08BD00002DE970438E
:102A800092B04FF07E5307930023089309930022DE
:102A90000A920B920C924FF4FA720D920E930F93CE
:102AA0001093119306E02B48FEF77EF94FF4FA607D
:102AB000FFF7F0FA284B1A68284B1A6000F04EF91D
:102AC000044600F05BF9054600F068F9064620462A
:102AD00000F0DAFA80468946304600F0D5FACDE9B2
:102AE0000201284600F0D0FACDE9000142464B46EB
:102AF0001B48FEF759F90021204600F0C9FD0028C7
:102B0000D1D11849204600F0E1FD0028CBD10021A9
:102B1000284600F0BDFD0028C5D11349284600F025
:102B2000D5FD0028BFD1002304930594069504A881
:102B3000FFF79AFE00F0BAFB044600F0A5FA024641
:102B40000B460A48FEF730F93246214607A800F046
:102B500084F8ABE750630008642000206820002060
:102B60001063000800501C450000CA42686300085A
:102B700008B501F053FA084B83FB00231A18C3175A
:102B8000C3EB6213C3EB0313A0EB8303034A13608D
:102B90000120FFF77FFAECE789888888642000200D
:102BA000012800D070474FF6FF739942FAD110B553
:102BB0000E4C00230C2203212046FFF74AFE00237F
:102BC0000D22032104F11000FFF743FE00230E2223
:102BD000032104F12000FFF73CFE00230F22032114
:102BE00004F13000FFF735FE10BD00BF24200020A7
:102BF00000B585B072B6104C029404F158030193ED
:102C00000223009300234FF480720C490C48FFF715
:102C100099F804F58B63029304F5966401940123FB
:102C2000009300234FF4807206490748FFF78AF8A3
:102C300062B6FFF7C1F8FEE71C0E002084630008AF
:102C40007D2A00088C630008712B000808B54FF638
:102C5000FF710120FFF7A4FF08BD2DE9F0410446F4
:102C60000846114600F06CFA0546206900F01EFB8C
:102C70000646A06900F01AFB0746294600F06AFBE9
:102C80000146304600F05EFA0646E06800F00EFBB2
:102C90000146284600F054FA394600F00FFC804601
:102CA0002946206800F056FB07463146606800F070
:102CB00051FB0146384600F045FA07464146A068F8
:102CC00000F048FB0146384600F03CFA07466069D0
:102CD00000F0ECFA0146384600F034FA0746284680
:102CE00000F0FEFCE060304600F0FAFC206138465F
:102CF00000F028F8BDE8F081704770474FF05003AE
:102D000083F31188BFF36F8FBFF34F8FFEE700008F
:102D1000034B036058330B6082231360704700BF7E
:102D2000CC16002010B4064B03F51874046003F5AC
:102D30002E730B604FF48273136010BC704700BF9A
:102D4000CC16002008B500F09FF902460B46024859
:102D5000FEF72AF808BD00BF9463000808B5054BCC
:102D60001B6803EB43039A00034B985800F09EFA4C
:102D700008BD00BF682000207809002008B5054B79
:102D80001B6803EB43039A00034B1344586800F09D
:102D90008DFA08BD682000207809002008B5054B91
:102DA0001B6803EB43039A00034B1344986800F03D
:102DB0007DFA08BD682000207809002070470000D7
:102DC00081F0004102E000BF83F0004330B54FEADC
:102DD00041044FEA430594EA050F08BF90EA020F49
:102DE0001FBF54EA000C55EA020C7FEA645C7FEADC
:102DF000655C00F0E2804FEA5454D4EB5555B8BFFF
:102E00006D420CDD2C4480EA020281EA030382EA6F
:102E1000000083EA010180EA020281EA0303362D01
:102E200088BF30BD11F0004F4FEA01314FF4801CD4
:102E30004CEA113102D0404261EB410113F0004FE6
:102E40004FEA03334CEA133302D0524263EB43039D
:102E500094EA050F00F0A780A4F10104D5F1200E3B
:102E60000DDB02FA0EFC22FA05F2801841F1000196
:102E700003FA0EF2801843FA05F359410EE0A5F16A
:102E800020050EF1200E012A03FA0EFC28BF4CF09B
:102E9000020C43FA05F3C01851EBE37101F0004551
:102EA00007D54FF0000EDCF1000C7EEB00006EEB5E
:102EB0000101B1F5801F1BD3B1F5001F0CD34908E8
:102EC0005FEA30004FEA3C0C04F101044FEA44523F
:102ED00012F5800F80F09A80BCF1004F08BF5FEAC6
:102EE000500C50F1000041EB045141EA050130BDA6
:102EF0005FEA4C0C404141EB0101013C28BFB1F5B8
:102F0000801FE9D291F0000F04BF01460020B1FA02
:102F100081F308BF2033A3F10B03B3F120020CDAD5
:102F20000C3208DD02F1140CC2F10C0201FA0CF0B3
:102F300021FA02F10CE002F11402D8BFC2F1200C18
:102F400001FA02F120FA0CFCDCBF41EA0C019040CE
:102F5000E41AA2BF01EB0451294330BD6FEA040417
:102F60001F3C1CDA0C340EDC04F11404C4F1200202
:102F700020FA04F001FA02F340EA030021FA04F314
:102F800045EA030130BDC4F10C04C4F1200220FA6B
:102F900002F001FA04F340EA0300294630BD21FAA9
:102FA00004F0294630BD94F0000F83F4801306BF6F
:102FB00081F480110134013D4EE77FEA645C18BF63
:102FC0007FEA655C29D094EA050F08BF90EA020FFA
:102FD00005D054EA000C04BF1946104630BD91EAF2
:102FE000030F1EBF0021002030BD5FEA545C05D1F5
:102FF0004000494128BF41F0004130BD14F5800434
:103000003CBF01F5801130BD01F0004545F0FE41A7
:1030100041F470014FF0000030BD7FEA645C1ABFDC
:10302000194610467FEA655C1CBF0B46024650EA13
:10303000013406BF52EA033591EA030F41F400213F
:1030400030BD00BF90F0000F04BF0021704730B5C5
:103050004FF4806404F132044FF000054FF000019A
:1030600050E700BF90F0000F04BF0021704730B55B
:103070004FF4806404F1320410F0004548BF404230
:103080004FF000013EE700BF42004FEAE2014FEA85
:1030900031014FEA02701FBF12F07F4393F07F4F60
:1030A00081F06051704732F07F4208BF704793F063
:1030B0007F4F04BF41F40021704730B54FF4607476
:1030C00001F0004521F000411CE700BF50EA010279
:1030D00008BF704730B54FF000050AE050EA010222
:1030E00008BF704730B511F0004502D5404261EB92
:1030F00041014FF4806404F132045FEA915C3FF4D3
:10310000D8AE4FF003025FEADC0C18BF03325FEA6F
:10311000DC0C18BF033202EBDC02C2F1200300FA20
:1031200003FC20FA02F001FA03FE40EA0E0021FA45
:1031300002F11444BDE600BF80F0004002E000BF91
:1031400081F0004142001FBF5FEA410392EA030F92
:103150007FEA226C7FEA236C6AD04FEA1262D2EBDC
:103160001363C1BFD218414048404140B8BF5B42E1
:10317000192B88BF704710F0004F40F4000020F07A
:103180007F4018BF404211F0004F41F4000121F090
:103190007F4118BF494292EA030F3FD0A2F10102DA
:1031A00041FA03FC10EB0C00C3F1200301FA03F118
:1031B00000F0004302D5494260EB4000B0F5000F3B
:1031C00013D3B0F1807F06D340084FEA310102F1FA
:1031D0000102FE2A51D2B1F1004F40EBC25008BFAC
:1031E00020F0010040EA03007047490040EB000076
:1031F000013A28BFB0F5000FEDD2B0FA80FCACF177
:10320000080CB2EB0C0200FA0CF0AABF00EBC250A3
:1032100052421843BCBFD0401843704792F0000F91
:1032200081F4000106BF80F400000132013BB5E7E4
:103230004FEA41037FEA226C18BF7FEA236C21D05A
:1032400092EA030F04D092F0000F08BF08467047BF
:1032500090EA010F1CBF0020704712F07F4F04D18D
:10326000400028BF40F00040704712F100723CBFA0
:1032700000F50000704700F0004343F0FE4040F4CA
:10328000000070477FEA226216BF08467FEA236388
:103290000146420206BF5FEA412390EA010F40F473
:1032A000800070474FF0000304E000BF10F00043BF
:1032B00048BF40425FEA000C08BF704743F09643A6
:1032C00001464FF000001CE050EA010208BF7047C1
:1032D0004FF000030AE000BF50EA010208BF704748
:1032E00011F0004302D5404261EB41015FEA010C5D
:1032F00002BF84460146002043F0B64308BFA3F155
:103300008053A3F50003BCFA8CF2083AA3EBC25336
:1033100010DB01FA02FC634400FA02FCC2F1200255
:10332000BCF1004F20FA02F243EB020008BF20F08C
:103330000100704702F1200201FA02FCC2F12002F2
:1033400050EA4C0021FA02F243EB020008BF20EAE7
:10335000DC7070474FF0FF0C1CEAD0521EBF1CEA15
:10336000D15392EA0C0F93EA0C0F6FD01A4480EA03
:10337000010C400218BF5FEA41211ED04FF00063EC
:1033800043EA501043EA5111A0FB01310CF0004018
:10339000B1F5000F3EBF490041EAD3715B0040EA3E
:1033A000010062F17F02FD2A1DD8B3F1004F40EB0E
:1033B000C25008BF20F00100704790F0000F0CF0E1
:1033C000004C08BF49024CEA502040EA51207F3AA5
:1033D000C2BFD2F1FF0340EAC250704740F4000080
:1033E0004FF00003013A5DDC12F1190FDCBF00F071
:1033F00000407047C2F10002410021FA02F1C2F11F
:10340000200200FA02FC5FEA310040F1000053EABA
:103410004C0308BF20EADC70704792F0000F00F008
:10342000004C02BF400010F4000F013AF9D040EA0E
:103430000C0093F0000F01F0004C02BF490011F4A2
:10344000000F013BF9D041EA0C018FE70CEAD153A0
:1034500092EA0C0F18BF93EA0C0F0AD030F0004C20
:1034600018BF31F0004CD8D180EA010000F00040D4
:10347000704790F0000F17BF90F0004F084691F092
:10348000000F91F0004F14D092EA0C0F01D14202CC
:103490000FD193EA0C0F03D14B0218BF084608D195
:1034A00080EA010000F0004040F0FE4040F40000DF
:1034B000704740F0FE4040F4400070474FF0FF0C72
:1034C0001CEAD0521EBF1CEAD15392EA0C0F93EAB9
:1034D0000C0F69D0A2EB030280EA010C49024FEA0B
:1034E000402037D04FF0805343EA111143EA1013C4
:1034F0000CF000408B4238BF5B0042F17D024FF47C
:10350000000C8B4224BF5B1A40EA0C00B3EB510F56
:1035100024BFA3EB510340EA5C00B3EB910F24BF3F
:10352000A3EB910340EA9C00B3EBD10F24BFA3EBC4
:10353000D10340EADC001B0118BF5FEA1C1CE0D18C
:10354000FD2A3FF650AF8B4240EBC25008BF20F03F
:10355000010070470CF0004C4CEA50207F32C2BF93
:10356000D2F1FF0340EAC250704740F400004FF030
:103570000003013A37E792F0000F00F0004C02BF61
:10358000400010F4000F013AF9D040EA0C0093F02B
:10359000000F01F0004C02BF490011F4000F013B85
:1035A000F9D041EA0C0195E70CEAD15392EA0C0FED
:1035B00008D142027FF47DAF93EA0C0F7FF470AF25
:1035C000084676E793EA0C0F04D14B023FF44CAF68
:1035D00008466EE730F0004C18BF31F0004CCAD1FD
:1035E00030F000427FF45CAF31F000437FF43CAF39
:1035F0005FE700BF4FF0FF3C06E000BF4FF0010C5B
:1036000002E000BF4FF0010C4DF804CD4FEA40023C
:103610004FEA41037FEA226C18BF7FEA236C11D086
:1036200001B052EA530C18BF90EA010F58BFB2EB39
:10363000030088BFC81738BF6FEAE17018BF40F0B9
:10364000010070477FEA226C02D15FEA402C05D16D
:103650007FEA236CE4D15FEA412CE1D05DF8040BF2
:10366000704700BF844608466146FFE70FB5FFF785
:10367000C9FF002848BF10F1000F0FBD4DF808ED3D
:10368000FFF7F4FF0CBF012000205DF808FB00BF2E
:103690004DF808EDFFF7EAFF34BF012000205DF888
:1036A00008FB00BF4DF808EDFFF7E0FF94BF0120D5
:1036B00000205DF808FB00BF4DF808EDFFF7D2FFD2
:1036C00094BF012000205DF808FB00BF4DF808ED15
:1036D000FFF7C8FF34BF012000205DF808FB00BFE2
:1036E0004FEA4002B2F1FE4F0FD34FF09E03B3EB0F
:1036F00012620DD94FEA002343F0004310F0004F4F
:1037000023FA02F018BF404270474FF000007047A4
:1037100012F1610F01D1420205D110F0004008BF43
:103720006FF0004070474FF000007047014B186881
:10373000704700BF480C00200A44914200F1FF335B
:1037400000D1704710B511F8014B03F8014F9142B9
:10375000F9D110BD02440346934200D1704703F8EB
:10376000011BF9E72DE9F04788B0002B1F461446EE
:10377000B8BF03F10043129A109DDDF84CA0B6BF0C
:103780001F4600232D231370149B23F02008B8F14B
:10379000460F05D0B8F1450F00D10135022300E0F6
:1037A000032307AA049206AACDE902A2CDE90035B7
:1037B00022463B4600F040FDB8F1470F064602D1D5
:1037C000119BDB0722D5B8F1460F06EB050910D196
:1037D0003378302B0AD1002200232046394602F0EC
:1037E000F5FB18B9C5F10105CAF80050DAF8003048
:1037F0009944002200232046394602F0E7FB08B135
:10380000CDF81C903022079B4B4507D3079B159A98
:103810009B1B3046136008B0BDE8F087591C079128
:103820001A70F0E7F7B503460029B8BF494203F81C
:10383000022BB4BF2D222B22092942702ADD0DF163
:103840000704A4460A27A6460A4691FBF7F607FB9B
:1038500016153035632A04F1FF340EF8015C314649
:10386000F1DC3031AEF1020504F8011C441C29469C
:1038700061450AD30DF10902A2EB0E02654588BF2E
:1038800000221344181A03B0F0BD11F8012B04F8FC
:10389000012FEDE7302330318370C170031DF1E754
:1038A0002DE9F04F91B00C46DDF8688016461F46B2
:1038B000054601F0AFFA03680993184600F0EEFBE5
:1038C00000230E93D8F800300A90073323F0070343
:1038D00003F1080294F81890D4F800B0C8F800205A
:1038E000D3E90023C4E91223D4E9128A2AF0004361
:1038F0000B930B999C4B4FF0FF32404602F098FB24
:1039000070BB994B0B994FF0FF32404602F072FBAF
:1039100030BB002200234046514602F061FB10B14B
:103920002D2384F84330914B9148B9F1470F94BF50
:1039300098468046032323612BF0040323604FF055
:10394000000A009733460FAA2146284600F0D2F914
:10395000013040F08F804FF0FF3011B0BDE8F08FA4
:10396000424653464046514602F062FB40B1BAF12E
:10397000000FBCBF2D2384F843307E487E4BD4E734
:1039800063685A1C09F0DF0142D1062363600022FC
:1039900006920EAACDE904920DAA4BF4806303921D
:1039A0000DF13302CDE90132236063680093424692
:1039B000534628460B91FFF7D5FE0B9947298046C1
:1039C0000D9908D1C81C02DB6368994240DDA9F15A
:1039D00002095FFA89F9B9F1650F1FD801394A4622
:1039E00004F150000D91FFF71DFF0E9A1318012AE4
:1039F0008246236102DC2268D20701D501332361AC
:103A00009DF83330002B9CD02D2384F8433098E769
:103A10004729BCD1002BBAD10123B7E7B9F1660F12
:103A200018D1002963680BDD216113B92268D00722
:103A300002D501330B442361A1654FF0000ADFE793
:103A400013B92268D20701D50233F4E70123F2E764
:103A50004FF067090E9B994205DB23682161D80767
:103A6000EAD54B1CE7E70029D4BFC1F102020122CD
:103A70001344E0E723685A0507D4236942463146D8
:103A80002846B84701302BD165E7B9F1650F40F200
:103A9000DC80D4E912010022002302F097FA00280A
:103AA00033D0364A012331462846B84701303FF427
:103AB00052AFDDE90D239A4202DB2368D8070FD508
:103AC000DDE9092331462846B84701303FF443AFCA
:103AD0004FF0000804F11A090E9B013B434509DC35
:103AE00023689B0700F10181E0680F9B9842B8BFF3
:103AF000184632E701234A4631462846B847013086
:103B00003FF429AF08F10108E6E70D9B002B37DCF5
:103B10001A4A012331462846B84701303FF41BAF0B
:103B2000DDE90D23134302D12368D907D8D5DDE998
:103B3000092331462846B84701303FF40CAF4FF017
:103B4000000904F11A0A0D9B5B424B4501DC0E9BF8
:103B500094E70123524631462846B84701303FF4E6
:103B6000FAAE09F10109EEE7FFFFEF7FA963000854
:103B7000AD630008B5630008B1630008B9630008CD
:103B80000E9AA36D9A42A8BF1A46002A914637DCC6
:103B90004FF0000B29EAE97904F11A02D4F858A091
:103BA000AAEB09035B4533DCDDE90D239A423BDBDD
:103BB0002368DA0738D40E9A0D99A2EB0A03A2EB18
:103BC00001099945A8BF9946B9F1000F34DC4FF0BF
:103BD000000829EAE97904F11A0ADDE90D239B1AA4
:103BE000A3EB090343457FF77BAF012352463146E0
:103BF0002846B84701303FF4AEAE08F10108ECE7C3
:103C00001346314642462846B8470130C0D1A2E6A5
:103C10000123314628460B92B84701303FF49BAE52
:103C20000B9A0BF1010BB9E7DDE909233146284670
:103C3000B8470130BFD18EE64B4608EB0A02314649
:103C40002846B8470130C2D185E60E9A012A01DC28
:103C5000DB0737D50123424631462846B8470130B5
:103C60003FF479AEDDE9092331462846B8470130F3
:103C70003FF471AED4E912010022002302F0A6F94C
:103C8000D8B90E9B08F10102013B31462846B847DE
:103C900001300ED15FE601234A4631462846B84737
:103CA00001303FF458AE08F101080E9B013B43453B
:103CB000F1DC534604F15002E1E64FF0000804F154
:103CC0001A09F2E701234246DFE701234A4631465B
:103CD0002846B84701303FF43EAE08F10108E368DA
:103CE0000F995B1A4345F0DCFEE64FF0000804F143
:103CF0001909F4E72DE9F047164699468A680B69D9
:103D0000DDF820809342B8BF1346336091F843201A
:103D100007460C460AB1013333602368990642BF57
:103D2000336802333360256815F0060506D104F1C7
:103D3000190AE36832689B1AAB4226DC94F84320E8
:103D4000131E226818BF012392062BD404F14302EC
:103D500049463846C04701301ED02368E5683268BE
:103D600003F00603042B08BFAD1AA36822690CBF39
:103D700025EAE57500259342C4BF9B1AED1800267D
:103D80001A34B5421AD1002008E0012352464946B0
:103D90003846C047013003D14FF0FF30BDE8F0870F
:103DA0000135C6E7E1185A1C302081F8430022444F
:103DB00094F8451082F843100233C7E701232246E6
:103DC00049463846C0470130E6D00136D9E7000001
:103DD0002DE9FF470C469146277E0C99782F8046A7
:103DE0009A4604F1430207D8622F0AD8002F00F048
:103DF000D880582F00F0A38004F1420684F8427066
:103E00003AE0A7F16303152BF6D801A050F823F090
:103E1000693E00087D3E0008F93D0008F93D0008B4
:103E2000F93D0008F93D00087D3E0008F93D000815
:103E3000F93D0008F93D0008F93D0008893F0008F8
:103E4000AD3E00086B3F0008F93D0008F93D000851
:103E5000AB3F0008F93D0008AD3E0008F93D000801
:103E6000F93D0008733F00080B681A1D1B680A60C3
:103E700004F1420684F842300123A3E02568086873
:103E80002E0600F104030AD505680B60002D03DA45
:103E90002D236D4284F843305E480A2319E015F063
:103EA000400F05680B6018BF2DB2EFE70B6825685F
:103EB000181D0860280601D51D6802E06906FBD5BB
:103EC0001D8854486F2F0CBF08230A23002184F853
:103ED00043106668A660002EA2BF216821F004018D
:103EE00021600DB9002E4DD01646B5FBF3F103FB52
:103EF0001157C75D06F8017D2F46BB420D46F4D928
:103F0000082B0BD12368DF0708D523696168994224
:103F1000DEBF302306F8013C06F1FF36921B22611A
:103F2000CDF800A04B4603AA21464046FFF7E2FE2B
:103F300001304CD14FF0FF3004B0BDE8F087354878
:103F400084F8457023680E681F0656F8045B0E60FF
:103F500014D5D90744BF43F0200323601DB923685B
:103F600023F0200323601023B0E7236843F02003ED
:103F700023607823284884F84530E3E75E0648BF8D
:103F8000ADB2E6E71646BBE70B68266860691D1D03
:103F90000D6035061B6801D5186002E07106FBD57F
:103FA0001880002323611646BAE70B681A1D0A60C1
:103FB0001E6862680021304600F03AFF08B1801B9D
:103FC000606063682361002384F84330A8E72369B5
:103FD000324649464046D0470130ABD023689B0764
:103FE00013D4E068039B9842B8BF1846A4E70123A6
:103FF000324649464046D04701309BD00135E36800
:1040000003995B1AAB42F2DCEBE7002504F11906D9
:10401000F5E700BFBB630008CC630008174B10B581
:104020001C68A36BB3B9182000F0F8FE0246A06329
:1040300020B9134B13484E21FCF790FE1249134B45
:10404000C0E90013124B83600B2383810021012000
:10405000C2E90401A16B0F480A694B690E4C504339
:1040600004FB0300A2FB04345A1C044444F1000086
:10407000C1E9042020F0004010BD00BF480C002022
:10408000DD630008F46300080E33CDAB34126DE637
:10409000ECDE05002DF451582D7F954C034613F8A6
:1040A000012B002AFBD1181A0138704730B5141EB5
:1040B00005469BB0184605DA8B232B604FF0FF3086
:1040C0001BB030BD4FF40273ADF80C3014BF04F1D7
:1040D000FF332346029305934FF6FF73009104913B
:1040E000ADF80E3002461E9B6946284601F080FB63
:1040F000431CBCBF8B232B60002CE1D0009B002213
:104100001A70DDE707B5009313460A4601460348D7
:104110000068FFF7CBFF03B05DF804FB480C0020FC
:104120002DE9F74F03690C69A3420746C0F281806D
:10413000013C01F1140800F1140505EB840301931F
:1041400058F8243055F8242001339A424FEA840B62
:1041500008EB8409B2FBF3F631D34FF0000E404672
:10416000AC46F24650F8042B93B206FB03E34FEA49
:10417000134E9BB2AAEB0303120CDCF800A006FB63
:1041800002E213FA8AF34FEA124E1FFA82FADCF8BF
:104190000020CAEB124202EB23429BB243EA0243E5
:1041A00081454CF8043B4FEA224ADBD255F80B30EC
:1041B0002BB9019B043B9D421A462ED33C613846E5
:1041C00001F002F9002824DB013628464FF0000CEC
:1041D00058F8042BD0F800E093B2ACEB0303120CB8
:1041E00013FA8EF3C2EB1E4202EB23429BB243EA68
:1041F0000243C14540F8043B4FEA224CE8D255F84F
:10420000242005EB840322B9043B9D421A460AD3BD
:104210003C61304603B0BDE8F08F1268043B002AD1
:10422000CCD1013CC7E71268043B002AF0D1013C25
:10423000EBE70020EEE700002DE9F04F446A99B06B
:1042400016461F46CDE90467DDF89480054674B92B
:10425000102000F0E3FD0246686220B9A84BEA2175
:10426000A848FCF77BFDC0E901440460C4606B6AA8
:10427000196851B15A684A60012393408B602846FF
:1042800000F066FE6B6A00221A603B1EB9BF23F085
:10429000004305930023C8F80030DDF814909A4BD2
:1042A000BCBF0122C8F8002033EA090319D1249ABF
:1042B00042F20F731360C9F31303334300F0818597
:1042C000269B53B9914B22E0914B08930833269AD1
:1042D0001360089819B0BDE8F08F8C4B0893033336
:1042E000F5E7DDE90434CDE90C34DDE90C01002209
:1042F000002301F06BFE804658B1249A012313601D
:10430000269B002B00F05A8582481860431E0893B4
:10431000DFE716AB019317AB00932846DDE90C23CA
:1043200001F0F8F8C9F30A548246002C7ED00D9BA8
:10433000CDF84C80C3F31303DDE90C0143F07F514A
:1043400041F44011A4F2FF34734B0022FEF73CFD10
:1043500065A3D3E9002301F0D1FB65A3D3E90023D2
:10436000FEF734FD064620460F46FEF77BFE62A3AD
:10437000D3E9002301F0C2FB02460B463046394622
:10438000FEF724FD06460F4601F068FE0022814636
:1043900000233046394601F023FE48B14846FEF777
:1043A00061FE32463B4601F011FE08B909F1FF39C2
:1043B000B9F1160F57D8594B03EBC903D3E90023C2
:1043C000DDE90C0101F00CFE00284ED009F1FF39A7
:1043D00000230F93169B1C1B631E099345BFC4F15A
:1043E00001030693002300234CBF09930693B9F100
:1043F000000F3CDB099BCDF838904B440993002318
:104400000A93229B092B00F28D80052BC4BF043B2D
:104410002293229BA3F10203CCBF00240124032B8F
:1044200000F28C80DFE803F02D4F4D5BDDE9164391
:104430001C4404F23243202BC3BFC3F1400304F2F7
:10444000124009FA03F3C3F12003C6BF26FA00F0B5
:10445000184306FA03F0FEF7F5FD0123A1F1F87108
:10446000013C139370E70123B3E70F90B2E7069B7B
:10447000A3EB09030693C9F100030A9300230E93EB
:10448000BFE700230B93239B002B5ADC4FF0010B5B
:10449000CDF808B05B46CDF88CB0686A0022426067
:1044A000042202F114069E42416850D9284600F0C9
:1044B0000FFD089000284ED1194B02464FF4D571DC
:1044C000CEE60123DEE700230B93239B09EB030BCE
:1044D0000BF10103012B0293B8BF0123DDE7012398
:1044E000F2E700BFAFF3008061436F63A787D23F5D
:1044F000B3C8608B288AC63FFB799F501344D33FD3
:10450000DD6300087D6400080000F07F7964000826
:1045100070640008BA6300080000F83FB065000846
:10452000F96400080124002322930B944FF0FF3B11
:104530000022CDF808B012232392AEE701230B939B
:10454000F4E7DDF88CB0CDF808B05B46A5E70131A3
:1045500041605200A5E76B6A089A1A60029B0E2B15
:1045600000F2A880002C00F0A580B9F1000F34DD26
:104570009A4A09F00F0302EBC303D3E9003419F49C
:10458000807FCDE910344FEA291416D0944BDDE931
:104590000C01D3E9082301F0DBFBCDE9040104F0B1
:1045A0000F0403278E4E54B9DDE91023DDE9040121
:1045B00001F0CEFBCDE9040129E00227F2E7E10793
:1045C00008D5DDE91001D6E9002301F097FACDE91D
:1045D0001001013764100836E5E700F0A580C9F145
:1045E00000047E4B7E4E04F00F0203EBC203D3E9BE
:1045F0000023DDE90C0101F081FACDE90401241169
:1046000000230227002C40F08480002BD2D10F9B86
:10461000002B00F08B80DDE90434CDE91034DDE9B6
:104620001001704B002201F0DBFC00287ED0029BC1
:10463000002B7BD0BBF1000F38DDDDE910016A4BA8
:10464000002201F05BFACDE9040109F1FF380137DE
:104650005C463846FEF706FDDDE9042301F04EFA1C
:10466000624B0022FEF7B2FBA1F15076CDE91001BA
:104670001196002C5DD1DDE904015D4B0022FEF7AF
:10468000A3FB02460B46CDE90423109A334601F002
:10469000C5FC002840F09E82DDE90401109A06F175
:1046A000004301F09DFC002840F09282DDE90C34CB
:1046B000CDE90434179B002BC0F25381B9F10E0FE2
:1046C00000F34F81454B03EBC903D3E90034CDE937
:1046D0000634239B002B80F2DB80029B002B00F32F
:1046E000D78040F07482424B0022DDE9060101F0E0
:1046F00005FADDE9042301F087FC029C2646002828
:1047000040F04A82089F312307F8013B09F1010973
:1047100046E2E20705D5D6E9002301F0EFF90137BB
:104720000123641008366DE7022770E7029CC84633
:104730008FE70899294B214412910B9903EBC4038D
:10474000DDE9106753E90223002955D029490020EB
:1047500001F0FEFA3B463246FEF736FBCDE910018A
:10476000089FDDE9040101F079FC0446FEF77AFCBC
:1047700002460B46DDE90401FEF726FB3034024613
:104780000B46CDE9042307F8014BDDE9102301F0C6
:1047900027FC002874D1DDE9042312490020FEF72C
:1047A00013FBDDE9102301F01BFC002840F0B6806C
:1047B000129B9F423FF47AAFDDE910010A4B0022C1
:1047C00001F09CF9084BCDE910010022DDE904015C
:1047D00001F094F9CDE90401C3E700BFB06500081A
:1047E000886500080000F03F0000244000001C40E5
:1047F000000014400000E03F3046394601F07EF9E9
:10480000CDE91001129B089C1493DDE9040101F02D
:1048100025FC1590FEF726FC02460B46DDE9040157
:10482000FEF7D2FA159B303304F8013B129B9C42F1
:1048300006460F464FF0000224D1B24BDDE91001CD
:10484000FEF7C4FA02460B463046394601F0E6FB55
:10485000002862D1DDE91023AA490020FEF7B4FA4E
:1048600002460B463046394601F0BAFB00283FF4B9
:104870001DAF149F7B1E149317F8013C302BF8D00A
:10488000C1463AE0A04B01F039F9CDE90401BCE79B
:10489000089FDDE90623DDE9040101F059FA01F082
:1048A000DDFB0446FEF7DEFBDDE9062301F026F919
:1048B00004F130060B460246DDE90401FEF784FAF6
:1048C00007F8016B089E029BBE1BB3423AD1024619
:1048D0000B46FEF77BFA02460B46CDE90223DDE9E3
:1048E000062301F09BFB58BBDDE90623DDE902014D
:1048F00001F06CFB08B1E10722D42846514600F0D4
:1049000027FB00233B70249B09F101001860269BC4
:10491000002B3FF4DEAC1F60DBE427463B461F461E
:1049200013F8012D392A07D1089A9A42F7D108992C
:10493000302208F101080A701A7801321A709FE7D4
:10494000C846EBE7704B002201F0D8F802460B4650
:10495000CDE904230022002301F038FB002898D081
:10496000CBE70B9A002A00F0D180229A012A00F3AB
:10497000AF80139A002A00F0A78003F233430A9C09
:10498000069F069A1A440692099A01211A4428465B
:10499000099200F097FB0646002F0CDD099B002BC7
:1049A00009DDBB42069AA8BF3B46D21A0692099A75
:1049B000FF1AD31A09930A9BF3B10B9B002B00F04B
:1049C000A980002C10DD31462246284600F036FC36
:1049D000524601460646284600F08AFB514680466C
:1049E000284600F0B5FAC2460A9B1A1B04D051466D
:1049F000284600F023FC82460121284600F062FB95
:104A00000E9B002B044640F387801A460146284639
:104A100000F014FC229B012B044640F380804FF0F1
:104A20000008236904EB8303186900F0FDFAC0F164
:104A30002000099B184410F01F0000F09280C0F184
:104A40002003042B40F38A80C0F11C00069B034422
:104A50000693099B034407440993069B002B05DD3D
:104A600051461A46284600F043FC8246099B002B1B
:104A700005DD21461A46284600F03AFC04460F9B05
:104A8000002B70D02146504600F09EFC00286ADAC8
:104A9000002351460A22284600F07CFA0B9B09F1BC
:104AA000FF398246002B00F09381314600230A2211
:104AB000284600F06FFABBF1000F064600F3938022
:104AC000229B022B57DC8EE0169BC3F1360356E780
:104AD000029B5C1E0A9BA342BFBF0A9B0A94E21A78
:104AE0000E9BB6BF9B181C1B0E93029BB8BF0024E5
:104AF000002BB9BF069B029A069F029BBCBF9F1A60
:104B000000233EE70000E03F000024400A9C069F8F
:104B10000B9E41E70A9A6AE7229B012B19DC049B52
:104B2000BBB9059BC3F313039BB9059B23F000435B
:104B30001B0D1B0583B1069B01330693099B0133B3
:104B400009934FF001080E9B002B7FF46AAF012000
:104B50006FE74FF00008F6E79846F4E73FF47DAFC3
:104B600018461C3072E7029B002B36DC229B022B7E
:104B700033DDDDF808B0BBF1000F0DD121465B46F7
:104B80000522284600F006FA01460446504600F089
:104B90001BFC00283FF7B6AD239B089F6FEA030973
:104BA0004FF000082146284600F0D2F9002E3FF4CD
:104BB000A4AEB8F1000F05D0B04503D04146284659
:104BC00000F0C6F93146284600F0C2F995E6002407
:104BD0002646E1E7C146264694E50B9BDDF808B082
:104BE000002B00F0FC80002F05DD31463A462846B8
:104BF00000F07EFB0646B8F1000F5CD071682846D5
:104C000000F066F9074628B97F4B024640F2EA21D8
:104C1000FFF726BB32690232920006F10C010C301C
:104C2000FEF78AFD01223946284600F061FB089B09
:104C300001330293089B5B440A93049B03F0010336
:104C4000B04609930646029B2146504603F1FF3BBE
:104C5000FFF766FA034630330490414650460B9303
:104C600000F0B2FB324606902146284600F0C8FB11
:104C7000C2680B9B074602BB0146504600F0A4FBEE
:104C80000B9B024639462846CDE90B3200F060F90D
:104C9000229B0C9A029F43EA0201099B0B430B9B48
:104CA0000DD1392B27D0069A002A01DD049B313320
:104CB0008BF8003076E73046B9E70122E2E7069943
:104CC000002904DB229801430998014320D1002ADE
:104CD000EEDD514601222846029300F009FB2146F1
:104CE000824600F071FB0028029B02DCE0D1DA076B
:104CF000DED5392BDAD139238BF800303B461F46FD
:104D0000013B17F8012C392A50D001321A7049E7BB
:104D1000002A03DD392BEED00133C9E7029A0A9944
:104D200002F8013C8A422AD0514600230A22284632
:104D300000F030F9B04582464FF000034FF00A0210
:104D40004146284607D100F025F980460646029BD9
:104D50000133029377E700F01DF9314680460023C6
:104D60000A22284600F016F90646F0E7BBF1000FCC
:104D7000089ACCBF5F46012717444FF00008514600
:104D800001222846029300F0B3FA2146824600F041
:104D90001BFB0028B2DC02D1029BDB07AED43B46F2
:104DA0001F4613F8012D302AFAD0FBE6089A9A42E2
:104DB000A5D1312309F101091370F3E6134BFFF775
:104DC000A6BA269B002B7FF47FAA114BFFF79FBA50
:104DD000BBF1000F03DC229B022B3FF7CCAE089FF8
:104DE00021465046FFF79CF900F1300307F8013BDC
:104DF000089ABA1A9345B9DD514600230A2228467B
:104E000000F0C8F88246EBE7F9640008B9630008CF
:104E100070640008004870479C0D0020024B01465A
:104E2000186800F02FBC00BF480C002000000000F4
:104E300001F0FF01102A2BDB10F0070F08D010F84B
:104E4000013B013A8B422DD010F0070F42B3F6D14F
:104E5000F0B441EA012141EA014122F007047FF068
:104E600000070023F0E80256083C85EA010586EABF
:104E7000010685FA47F5A3FA87F586FA47F6A5FAFB
:104E800087F68EB9EED1F0BC01F0FF0102F0070207
:104E900032B110F8013B013A83EA010313B1F8D1B2
:104EA0000020704701387047002D06BF3546033893
:104EB000073815F0010F07D1013015F4807F02BFCC
:104EC000013015F4C03F0130F0BC0138704700BF1D
:104ED00070B5466A04460D4676B91020FFF79EFF6E
:104EE0000246606220B9184B18486621FBF736FF6E
:104EF000C0E901660660C660666AF36883B1636AEA
:104F0000DB6853F82500B8B9012101FA05F6721DD6
:104F10009200204600F05AFB60B1C0E901560EE055
:104F200021220421204600F051FB636AF060DB6817
:104F3000002BE4D1002070BD026843F82520002337
:104F4000C0E90333F7E700BFDD6300080A65000826
:104F500070B5466A05460C4676B91020FFF75EFF2D
:104F60000246686220B9094B09488A21FBF7F6FE20
:104F7000C0E901660660C6603CB16B6A6268DB68C6
:104F800053F82210216043F8224070BDDD63000811
:104F90000A6500082DE9F0410E69074698460C465F
:104FA00001F1140000230568A9B202FB01814FEA58
:104FB000114C2D0C02FB05C589B2013301EB0541F3
:104FC0009E4240F8041B4FEA1548ECDCB8F1000F94
:104FD00022D0A368B34219DC616838460131FFF77B
:104FE00077FF054628B902460D4B0E48B521FBF761
:104FF000B5FE2269023204F10C0192000C30FEF77A
:105000009BFB21463846FFF7A3FF2C4604EB8603A3
:105010000136C3F8148026612046BDE8F08100BF48
:10502000F96400080A650008020C12040346CAB9B4
:105030000304102013F07F4F04BF1B02083013F04D
:10504000704F04BF1B01043013F0404F04BF9B009E
:105050000230002B05DB13F0804F00F1010008BF88
:10506000202070470020E5E70368024613F00700A0
:105070000BD0D90722D4980749BF5B089B080120B1
:1050800013605CBF13600220704799B209B91B0C12
:10509000102013F0FF0F04BF1B0A0830190704BFCC
:1050A0001B090430990704BF9B080230D90703D4B9
:1050B0005B0800F1010003D01360704700207047C7
:1050C0002020704710B50C460121FFF701FF024672
:1050D00028B9054B05484FF4A071FBF73FFE0123AB
:1050E0004461036110BD00BFF96400080A6500084F
:1050F0002DE9F04F14460A6923699A42B8BF0B465E
:105100000D46BCBF25461C46D5F810A0D4F810901B
:10511000AB6869680AEB0907BB4285B0B8BF0131CB
:10512000FFF7D6FE30B90246424B434840F25D11CC
:10513000FBF714FE00F1140606EB87083346002245
:1051400043451ED305F1140C04F114030CEB8A0C37
:1051500003EB89020292ACEB0502153A22F003023E
:10516000043205F115018C4538BF04220192029AE0
:1051700003939A4208D8002F55DC076105B0BDE8BB
:10518000F08F43F8042BDBE7B3F800A0BAF1000F6F
:1051900020D005F1140EB14600225EF8044BD9F878
:1051A00000B0A1B21FFA8BFB0AFB01B11144D9F880
:1051B0000020240C120C0AFB042404EB114489B2D5
:1051C00041EA0441F44549F8041B4FEA1442E4D88B
:1051D00001997250039AB2F802900433B9F1000FAA
:1051E0001FD0346805F11401B6464FF0000A0A8852
:1051F000BEF802B009FB02B29244A4B244EA0A44E7
:105200004EF8044B51F8044BBEF80020240C09FB67
:10521000042404EB1A448C454FEA144AE7D8019A57
:10522000B4500436A3E758F8043D002BA5D1013F44
:10523000A1E700BFF96400080A6500082DE9F843FA
:10524000154612F0030206460F4607D0254C013AD8
:10525000002354F82220FFF79DFE0746AD103DD0F5
:10526000746A7CB91020FFF7D9FD0246706228B934
:105270001D4B1E484FF4D771FBF770FDC0E9014488
:105280000460C460D6F82480D8F808404CB940F2D5
:1052900071213046FFF716FF0023C8F808000446C6
:1052A00003604FF00009EB070AD539462246304625
:1052B000FFF71EFF394680463046FFF749FE474656
:1052C0006D100BD0206838B9224621463046FFF7D2
:1052D0000FFF2060C0F800900446E4E73846BDE8C0
:1052E000F88300BF78660008DD6300080A650008DF
:1052F0002DE9F0470C464968236903EB6218A3685F
:10530000074691464FEA621A08F10106B3420BDBE9
:105310003846FFF7DDFD054648B90246284B2948C7
:1053200040F2D911FBF71AFD01315B00EEE70023D3
:1053300000F1140100F110021846534533DB2069D7
:105340002AEAEA7A04F1140319F01F0901EB8A0131
:1053500003EB800C2BD0C9F1200E8A46002218687E
:1053600000FA09F002434AF8042B53F8042B9C4539
:1053700022FA0EF2F3D8ACEB0403153B23F003033F
:10538000043304F11500844538BF0423CA500AB120
:1053900008F10206013E38462E612146FFF7D8FD8E
:1053A0002846BDE8F08742F8040F0133C5E7043909
:1053B00053F8042B41F8042F9C45F9D8EAE700BFC5
:1053C000F96400080A6500080A6903460069801A42
:1053D00030B50DD11433143103EB820401EB82019B
:1053E00054F8045D51F8042D954202D004D30120F5
:1053F00030BDA342F4D3FBE74FF0FF30F8E70000E5
:105400002DE9F84F0C460646114620461746FFF791
:10541000DBFF051E11D129463046FFF759FD024634
:1054200028B93A4B40F232213948FBF797FC012367
:10543000C0E904351046BDE8F88FA4BF3B462746B7
:1054400030467968A6BF1C4600250125FFF740FDC0
:10545000024618B92D4B4FF41071E5E73E69C5605F
:10546000256907F1140100F1140E04F1140907F184
:10547000100001EB860C09EB8505F246002759F870
:10548000043B50F804BF1FFA83F817FA8BF71B0C84
:10549000A7EB0808C3EB1B4303EB28431FFA88F86C
:1054A0001F144D4548EA03434AF8043BE7D82B1B39
:1054B000153B23F0030304331534A54238BF0423FE
:1054C000194473449E460D4665450ED30CF1030006
:1054D000401A20F0030003398C4538BF00201844DF
:1054E00050F8043D7BB11661A4E755F8048B17FA18
:1054F00088F4201400EB1840A4B244EA00444EF8AB
:10550000044B0714E0E7013EEAE700BFF964000836
:105510000A6500082DE9F3410121DDE9087690468E
:105520001D46FFF7D5FC044630B90246254B2648F8
:1055300040F20A31FBF712FCC5F31303C5F30A5519
:105540002DBB0193B8F1000326D068460093FFF706
:105550008BFD0099F0B1019AC0F1200302FA03F328
:105560000B43C24063610192019BA361002B14BFF6
:10557000022101212161C5B1A5F233450544C0F1E5
:1055800035003D603060204602B0BDE8F08143F454
:105590008013D6E76161E7E701A8FFF765FD019B8E
:1055A0006361012121612030E5E704EB8103A0F272
:1055B000324038601869FFF737FDC0EB41113160A8
:1055C000E1E700BFF96400080A65000838B502FB8E
:1055D00001F5294600F056F8044618B12A46002184
:1055E000FEF7B8F8204638BD38B50546002945D045
:1055F00051F8043C0C1F002BB8BFE41800F034FA3B
:105600001F4A1368104633B9636014602846BDE82A
:10561000384000F02FBAA3420BD921686218934298
:1056200004BF1A685B68636004BF5218226004609C
:10563000ECE71A465B680BB1A342FAD9116850181F
:10564000A0420BD120680144501883421160DDD183
:1056500018685B68536001441160D7E702D90C23D6
:105660002B60D3E7206821188B4204BF19685B6860
:10567000636004BF091821605460C7E738BD00BFEC
:105680006C200020F8B5CD1C25F0030508350C2D45
:1056900038BF0C25002D064601DBA94203D90C2397
:1056A00033600020F8BD00F0DFF921490A68144694
:1056B0009CB9204F3B6823B92146304600F098F949
:1056C00038602946304600F093F9431C23D10C235F
:1056D0003360304600F0CEF9E3E723685B1B17D454
:1056E0000B2B03D923601C44256004E06368A242AD
:1056F0000CBF0B605360304600F0BCF904F10B00A6
:10570000231D20F00700C21ACCD01B1AA350C9E7F2
:1057100022466468CCE7C41C24F00304A042E3D012
:10572000211A304600F064F90130DDD1CFE700BF27
:105730006C200020702000202DE9F0478E689E42EA
:1057400082460C4690461F4638D88A8912F4906FDC
:1057500032D025680969A5EB0109656905EB4505A6
:1057600005EBD57501334B446D109D4238BF1D4686
:10577000530531D52946FFF785FF064650B90C235E
:10578000CAF80030A38943F04003A3814FF0FF30F3
:10579000BDE8F08721694A46FDF7CEFFA38923F4CF
:1057A000906343F08003A381266165614E44A5EBBD
:1057B00009052660A5603E46BE4200D93E463246F7
:1057C0002068414600F036F9A36822689B1B3244EA
:1057D000A36022600020DBE72A4600F051F906466C
:1057E0000028E1D121695046FFF7FEFEC7E700001F
:1057F0002DE9F04F98468B891B069DB007460D4654
:1058000014460ED50B6963B94021FFF73BFF2860B2
:10581000286120B90C233B604FF0FF30D1E04023DA
:105820006B610023099320238DF82930CDF80C807B
:105830003023DFF8A8818DF82A304FF00109234684
:105840009A4613F8012B0AB1252AF9D1BAEB040BB9
:105850000BD05B46224629463846FFF76DFF0130E4
:1058600000F0AA80099A5A4409929AF80030002B55
:1058700000F0A28000234FF0FF32CDE905230AF1AA
:10588000010A049307938DF853301A935446052266
:1058900014F8011B5148FFF7CBFA049AD8B9D00687
:1058A00044BF20238DF85330110744BF2B238DF8BC
:1058B00053309AF800302A2B15D0079A544600200E
:1058C0004FF00A0C214611F8013B303B092B4ED911
:1058D000B0B1079214E0A0EB080309FA03F31343F5
:1058E0000493A246D2E7039B191D1B680391002B6A
:1058F000BBBF5B4242F0020207930793B8BF04921A
:1059000023782E2B0CD163782A2B35D1039B1A1DBB
:105910001B680392002BB8BF4FF0FF33023405938E
:10592000DFF8C8A0217803225046FFF781FA40B182
:105930004023A0EB0A0003FA00F0049B0343013468
:10594000049314F8011B26488DF828100622FFF74F
:105950006FFA002838D0234B1BBB039B073323F07F
:10596000070308330393099B3344099367E70CFB50
:1059700002320C460120A5E70023013405931946A5
:105980004FF00A0C204610F8012B303A092A03D9AF
:10599000002BC5D00591C3E70CFB01210446012370
:1059A000F0E703AB00932A460F4B04A93846FDF7F6
:1059B00077FF421C0646D6D1AB895B063FF52CAF7C
:1059C00009981DB0BDE8F08F03AB00932A46064B43
:1059D00004A93846FEF7FCF9EBE700BF846600082F
:1059E0008E660008A1380008395700088A6600084A
:1059F00038B5064D0023044608462B60FBF784F9B2
:105A0000431C02D12B6803B1236038BD78200020ED
:105A100082B001B901A942B14BB113780B60127881
:105A2000101E18BF012002B070471046FBE76FF050
:105A30000100F8E7884210B501EB020402D9844264
:105A4000234607D8431EA14208D011F8012B03F8C2
:105A5000012FF8E7024401468A4200D110BD13F835
:105A6000014D02F8014DF7E7014800F03CB800BFD6
:105A7000C0200020014800F037B800BFC02000203F
:105A8000F8B5074614460E4621B9BDE8F840114660
:105A9000FFF7F8BD22B9FFF7A7FD25462846F8BD58
:105AA00000F023F8A0420FD221463846FFF7EAFD66
:105AB00005460028F2D031462246FDF73DFE31462C
:105AC0003846FFF791FDE9E73546E7E70346084624
:105AD00041B1FF2A04D98A221A604FF0FF30704783
