:020000040800F2
:1000000000000220B9020008BF020008C302000875
:1000100035030008390300088103000800000000D0
:1000200000000000000000000000000011110008A6
:10003000CD03000800000000B1110008F511000810
:10004000E5030008E5030008E5030008E5030008F0
:10005000E5030008E5030008E5030008E5030008E0
:10006000E5030008E5030008E5030008E5030008D0
:10007000E5030008E5030008E5030008E5030008C0
:10008000E5030008E5030008E5030008E5030008B0
:10009000E5030008E5030008E5030008E5030008A0
:1000A000E5030008E5030008E5030008E503000890
:1000B000E5030008E5030008E5030008E503000880
:1000C000E5030008E5030008E5030008E503000870
:1000D000E5030008E5030008E5030008E503000860
:1000E000E5030008E5030008E5030008E503000850
:1000F000E5030008E5030008E5030008E503000840
:10010000E5030008E5030008E5030008E50300082F
:10011000E5030008E5030008E5030008E50300081F
:10012000E5030008E5030008E5030008E50300080F
:10013000E5030008E5030008E5030008E5030008FF
:10014000E5030008E5030008E5030008E5030008EF
:10015000E5030008E5030008E5030008E5030008DF
:10016000E5030008E5030008E5030008E5030008CF
:10017000E5030008E5030008E503000800000000AF
:10018000E5030008E503000800B583B000F06AFE4F
:10019000384B394A1360394A1360394900E0214627
:1001A000384B99420BD20A684B6801F10C048868FD
:1001B0009842F4D952F8041B43F8041BF8E72E4B7D
:1001C0001A68314B9A4200D0FEE72C4B1A682F4B2D
:1001D0009A42F9D1274B2E4A13602E4A13602E4AB9
:1001E00005E0002043F8040B9A42FAD80A462B4B4C
:1001F0009A4204D2114651F8083B5268F4E7244B66
:100200001B6813B9234B1B6803B1FEE702F0BEFB6A
:10021000694601A800F09AFD214C224BE41AA41073
:10022000002504E01F4B53F8253098470135AC42B8
:10023000F8DC1D4C1D4BE41AA410002504E01B4BF8
:1002400053F8253098470135AC42F8DC0099019805
:1002500002F0DCFC0546164C164BE41AA41004E030
:10026000013C144B53F824309847002CF8DC284606
:1002700000F03EFDBABADECA0000002040050020B2
:10028000E8030008000400087856341232547698C7
:10029000BC140020EC170020000400081004000823
:1002A00010040008100400081404000810040008DA
:1002B000140400081404000808B5FFF765FF00BE29
:1002C000FEE71EF0040F0CBFEFF30880EFF3098088
:1002D0007146414A10472DE9F04182B004460D466F
:1002E000124B5F6BD3F838809E6A1B6B13F0020FC2
:1002F00003D00E4BDB6A002B0BDB0D4800F054FDE6
:10030000009543463A463146204600F0B7FD00BE10
:10031000FEE74BF6AB6100F02BFE0028EDD0034B5F
:100320004FF00042DA6202B0BDE8F08100ED00E07B
:10033000C47E000800BEFEE71EF0040F0CBFEFF302
:100340000880EFF309807146244A10472DE9F041F7
:1003500082B004460D46084B5F6BD3F838809E6A26
:10036000064800F021FD009543463A4631462046B6
:1003700000F084FD00BEFEE700ED00E0D47E000842
:100380001EF0040F0CBFEFF30880EFF309807146F5
:10039000134A10472DE9F04182B004460D46084B40
:1003A0005F6BD3F838809E6A064800F0FDFC00952C
:1003B00043463A463146204600F060FD00BEFEE767
:1003C00000ED00E0E07E000800BEFEE700BEFEE7B4
:1003D00000BEFEE770470000D70200084D0300088A
:0803E0009503000800BEFEE7D2
:1003E8007884000800000020440500207884000874
:1003F8000000001000000010BC140020F0170020BE
:0C0408000000001000000010692C00082B
:1004200010B50446074B1868074BA3FB0030800942
:1004300000F090F8002221464FF0FF3000F044F821
:10044000002010BD0C000020D34D621008B50B4BEE
:100450001A6842F400721A601A6842F480621A60E4
:100460001A6842F480721A60032000F00FF80F201F
:10047000FFF7D6FF02F0B0FC002008BD003C0240B0
:10048000014B1868704700BF9817002010B504464C
:10049000C31E042B0FD80A4AD36823F4E0631B045D
:1004A0001B0C240204F4E064234343F0BF6343F4D1
:1004B0000033D36010BDA421024800F06BFCEAE7D2
:1004C00000ED00E0B47C000870B505460C46164609
:1004D0000F2A25D80F2C28D81B4BDB68C3F3022327
:1004E000C3F10701042928BF04211A1D062A21D9B6
:1004F000033B4FF0FF3202FA01F124EA01049C4071
:1005000002FA03F326EA03063443002D14DB240128
:10051000E4B205F1604505F5614585F8004370BD1D
:10052000BC210A4800F036FCD4E7BD21074800F0A2
:1005300031FCD1E70023DCE705F00F052401E4B22C
:10054000034B5C55EBE700BF00ED00E0B47C000816
:1005500014ED00E00138B0F1807F0AD2064B5860FC
:10056000064AF02182F823100020986007221A60C2
:1005700070470120704700BF10E000E000ED00E090
:1005800010B50446042800D038B9042C0BD0094A11
:10059000136823F00403136010BD40F2B311064842
:1005A00000F0F8FBF1E7034A136843F0040313601B
:1005B000F2E700BF10E000E0B47C000830B583B083
:1005C000044603680F2B29D8236813F0010F3DD090
:1005D0006368012B01D9052B25D1A24B9B6803F041
:1005E0000C03042B29D09F4B9B6803F00C03082BB2
:1005F0001ED022799C4B1A706368002B50D0FFF7F5
:100600003FFF0546974B1B6813F4003F1ED1FFF7D1
:1006100037FF401B6428F5D90320E3E1F521934817
:1006200000F0B8FBD0E7FA21904800F0B3FBD4E724
:100630008C4B5B6813F4800FDBD08A4B1B6813F480
:10064000003F03D06368002B00F0C781236813F0DC
:10065000020F5CD0E368012B31D823691F2B34D8FB
:10066000804B9B6813F00C0F3AD07E4B9B6803F0D5
:100670000C03082B2FD0E368002B73D07C4B012296
:100680001A60FFF7FDFE0546764B1B6813F0020F5C
:1006900059D1FFF7F5FE401B0228F5D90320A1E14F
:1006A000FFF7EEFE05466F4B1B6813F4003FCDD0FD
:1006B000FFF7E6FE401B6428F5D9032092E14FF4D2
:1006C00096716A4800F066FBC7E740F22D11674853
:1006D00000F060FBC4E7634B5B6813F4800FCAD182
:1006E000604B1B6813F0020F03D0E368012B40F04E
:1006F00076815C48036823F0F8032169F82292FAB6
:10070000A2F2B2FA82F201FA02F213430360236802
:1007100013F0080F50D06369012B35D86369002BA3
:1007200038D0544B01221A60FFF7AAFE05464D4B04
:100730005B6F13F0020F3FD1FFF7A2FE401B0228B0
:10074000F5D903204EE14748036823F0F8032169F7
:10075000F82292FAA2F2B2FA82F201FA02F21343FA
:100760000360D4E7424B00221A60FFF789FE05467A
:100770003C4B1B6813F0020FC9D0FFF781FE401BF2
:100780000228F5D903202DE140F26D11374800F021
:1007900001FBC3E7374B00221A60FFF771FE0546E5
:1007A000304B5B6F13F0020F06D0FFF769FE401B62
:1007B0000228F5D9032015E1236813F0040F5FD058
:1007C000A368012B01D9052B1FD100230193254BD1
:1007D0001A6C42F080521A641B6C03F08053019330
:1007E000019B254A136843F480731360FFF748FEAA
:1007F0000546214B1B6813F4807F0CD1FFF740FEA8
:10080000401B0228F5D90320ECE040F2971117486D
:1008100000F0C0FAD9E7227A184B1A70A36883B1A6
:10082000FFF72EFE05460F4B1B6F13F0020F27D16B
:10083000FFF726FE401B41F288339842F3D903208C
:10084000D0E0FFF71DFE0546064B1B6F13F0020FAD
:1008500016D0FFF715FE401B41F288339842F3D9BA
:100860000320BFE00038024002380240E87C000864
:1008700000004742800E474200700040703802403E
:10088000A369022B39D8A369002B00F0AA80574A2C
:10089000926802F00C02082A00F0A680022B40F0B9
:1008A0008880E36913B1B3F5800F2CD1236A3F2B05
:1008B0002FD8636A323BB3F5BF7F30D8A36A022BCF
:1008C00005D0042B03D0062B01D0082B2DD1E36AD1
:1008D000043B0B2B2FD8464B00221A60FFF7D0FDAC
:1008E0000546424B1B6813F0007F2AD0FFF7C8FD76
:1008F000401B0228F5D9032074E04FF4E6713D480F
:1009000000F048FABFE740F2D5113A4800F042FA49
:10091000CCE74FF4EB71374800F03CFAC9E740F2FE
:10092000D711344800F036FAC8E74FF4EC7131487B
:1009300000F030FACBE740F2D9112E4800F02AFA45
:10094000C9E7E369226A1343616A47F6C07292FA03
:10095000A2F2B2FA82F201FA02F21343A26A520838
:10096000013A4FF4403191FAA1F1B1FA81F18A4094
:100970001343E16A4FF0706292FAA2F2B2FA82F285
:1009800001FA02F21343194A5360194B01221A600B
:10099000FFF776FD0446154B1B6813F0007F06D168
:1009A000FFF76EFD001B0228F5D903201AE0002096
:1009B00018E00F4B00221A60FFF762FD04460B4B54
:1009C0001B6813F0007F06D0FFF75AFD001B0228BA
:1009D000F5D9032006E0002004E0012002E0012018
:1009E00000E0002003B030BD0120FBE700380240EA
:1009F00060004742E87C0008214B9B6803F00C0331
:100A0000042B38D0082B38D11D4B586800F03F001C
:100A10005B6813F4800F1ED01A4AB2FBF0F2184B39
:100A2000586847F6C073184093FAA3F3B3FA83F3F8
:100A3000D84000FB02F0124B5B6803F440334FF4E4
:100A4000403292FAA2F2B2FA82F2D34001335B0052
:100A5000B0FBF3F070470C4AB2FBF0F2084B586859
:100A600047F6C073184093FAA3F3B3FA83F3D84060
:100A700000FB02F0DFE7034870470348704700BF00
:100A80000038024000127A000024F40070B50446D9
:100A90000D460368013B0E2B5ED8072D62D88C4BA8
:100AA0001B6803F00F03AB4208D2EBB2884A137005
:100AB000136803F00F03AB4240F00481236813F086
:100AC000020F18D0A3687BB1802B0DD0902B0BD0D8
:100AD000A02B09D0B02B07D0C02B05D0D02B03D032
:100AE000E02B01D0F02B43D17A4A936823F0F00336
:100AF000A1680B439360236813F0010F7FD06368F4
:100B0000032B3BD86368012B3ED09A1E012A42D9A1
:100B1000704A126812F0020F00F0D6806D498A68A0
:100B200022F0030213438B60FFF7AAFC06466368BA
:100B3000012B37D0022B44D0032B51D0654B9B683F
:100B400013F00C0F5BD0FFF79BFC801B41F2883346
:100B50009842F3D90320A8E040F237215E4800F024
:100B600019F99AE74FF40E715B4800F013F996E714
:100B700040F24F21584800F00DF9B5E740F25621F8
:100B8000554800F007F9BDE7524A126812F4003FD9
:100B9000C4D1012089E04F4A126812F0007FBDD114
:100BA000012082E04B4B9B6803F00C03042B26D002
:100BB000FFF766FC831B41F288329342F2D903208F
:100BC00073E0444B9B6803F00C03082B17D0FFF72E
:100BD00057FC801B41F288339842F2D9032064E02D
:100BE0003C4B9B6803F00C030C2B08D0FFF748FC30
:100BF000801B41F288339842F2D9032055E0344BF0
:100C00001B6803F00F03AB4207D9EAB2304B1A70EE
:100C10001B6803F00F03AB4258D1236813F0040F95
:100C200014D0E3685BB1B3F5805F08D0B3F5A05F83
:100C300005D0B3F5C05F02D0B3F5E05F36D1254AE9
:100C4000936823F4E053E1680B439360236813F047
:100C5000080F15D023695BB1B3F5805F08D0B3F5F9
:100C6000A05F05D0B3F5C05F02D0B3F5E05F23D13C
:100C7000184A936823F46043216943EAC1039360EF
:100C8000FFF7BAFE134B9B6803F0F003F02292FAD1
:100C9000A2F2B2FA82F2D340104AD35CD840104B91
:100CA00018600F20FFF7BCFB002070BD4FF42D71C2
:100CB000094800F06FF8C2E740F2BB21064800F097
:100CC00069F8D5E70120F0E70120EEE70120ECE725
:100CD000003C024000380240E87C0008187D000813
:100CE0000C000020014B1868704700BF0C0000206A
:100CF000FEE7000008B5034800F070F80120FFF798
:100D0000F7FF00BF287D000808B503460C4A1268AB
:100D10005AB10B4A1068033323F003030344094A12
:100D2000934206D8064A136008BD054A0649116079
:100D3000EFE702F059FD0C2303604FF0FF30F3E7BB
:100D4000C014002000FC0120F017002001230360E4
:100D5000014B0B60704700BF0400002000B583B05A
:100D60000C461946134652B1074A53B101930092FB
:100D700023460246054800F017F8FFF7BBFF044A78
:100D8000F3E7034BF2E700BF3C7D00084C7D000811
:100D9000607F000808B50A460146024800F004F8E2
:100DA000FFF7A8FF7C7D00080FB400B583B004AB4B
:100DB00053F8042B01938021074804F09BFA002884
:100DC00004DC03B05DF804EB04B070470146024850
:100DD00000F044F8F5E700BFC814002010B5044641
:100DE00003F0AEFB0146204600F038F8012102482E
:100DF00000F034F810BD00BFD07F00082DE9F043AB
:100E000085B004460F46435633BB04252846214689
:100E1000ABBE0446384605B0BDE8F08314F9010BBB
:100E200004AA1A4402F8100C0133AB42F6D304AA08
:100E30001344002203F8102C4FF00408E946404602
:100E40004946ABBE8046761B002EE3D03546102EB9
:100E500028BF10250023E8E70E46F5E708B5FFF7A1
:100E6000CDFF08BD08B500F093F8024A024B9A6026
:100E700008BD00BF0000000800ED00E0F8B5044622
:100E80000D4617461E462748FFF78EFF2168264865
:100E9000FFF78AFF61682548FFF786FFA1682448AD
:100EA000FFF782FFE1682348FFF77EFF21692248B0
:100EB000FFF77AFF61692148FFF776FFA1692048B3
:100EC000FFF772FFE1691F48FFF76EFF1E48FFF74B
:100ED0006BFF29461D48FFF767FF1D4CE16A1D485F
:100EE000FFF762FF216B1C48FFF75EFFE16B1B48B9
:100EF000FFF75AFF15F0800F0AD115F4004F0CD1FF
:100F00001748FFF751FF06991648FFF74DFFF8BD48
:100F100039461548FFF748FFEFE731461348FFF71A
:100F200043FFEDE7A87D0008B87D0008C87D0008F4
:100F3000D87D0008E87D0008F87D0008087E0008DC
:100F4000187E0008287E0008387E0008447E0008CD
:100F500000ED00E0547E0008647E0008747E000806
:100F6000A47E0008AC7E0008847E0008947E000801
:100F700083691A888A4201D0002070470268033AC8
:100F8000012A01D900207047023383610120704794
:100F90000C4B1A6842F001021A60002199601A682D
:100FA00022F0847222F480321A60074A5A601A686A
:100FB00022F480221A60D960044B4FF000629A60DC
:100FC000704700BF003802401030002400ED00E000
:100FD000224B9B6803F00C03042B14D0082B16D073
:100FE0001BB11F4B1F4A1A6002E01D4B1D4A1A60BD
:100FF0001A4B9B68C3F303131B4AD15C184A13684E
:10100000CB4013607047164B184A1A60F0E7134B39
:101010005A685B6803F03F0312F4800F13D0134A41
:10102000B2FBF3F20D4B5B68C3F3881303FB02F3CF
:101030000A4A5268C2F3014201325200B3FBF2F392
:10104000074A1360D4E7074AB2FBF3F2034B5B682D
:10105000C3F3881303FB02F3EAE700BF0038024042
:101060000C0000200024F400F07E000800127A003A
:1010700040B14FF0500383F31188BFF36F8FBFF37C
:101080004F8FFEE77047000082B0002301930D4BA5
:101090001B68B3F1FF3F08D04FF0500383F3118872
:1010A000BFF36F8FBFF34F8FFEE74FF0500383F313
:1010B0001188BFF36F8FBFF34F8F019B002BFCD0C4
:1010C00002B070471000002006480068006880F3F6
:1010D000088862B661B6BFF34F8FBFF36F8F00DF32
:1010E00000BF000008ED00E04FF0807340F8043CC2
:1010F00021F0010140F8081C034B40F80C3C40F87B
:10110000202C4038704700BF891000080000000004
:10111000074B19680868B0E8F00F80F30988BFF33F
:101120006F8F4FF0000080F311884EF00D0E704766
:10113000481500204FF0500383F31188BFF36F8FE1
:10114000BFF34F8F0A4A136801331360012B00D09D
:101150007047084B1B6813F0FF0FF9D04FF0500396
:1011600083F31188BFF36F8FBFF34F8FFEE700BF8C
:101170001000002004ED00E0094B1B6843B94FF05C
:10118000500383F31188BFF36F8FBFF34F8FFEE7D8
:10119000013B034A13600BB983F31188704700BF0A
:1011A000100000200000000000000000000000000F
:1011B000EFF30980BFF36F8F0D4B1A6820E9F00F32
:1011C00010602DE908404FF0500080F3118800F0C6
:1011D00087FF4FF0000080F31188BDE808401968D0
:1011E0000868B0E8F00F80F30988BFF36F8F70478D
:1011F0004815002008B54FF0500383F31188BFF362
:101200006F8FBFF34F8F00F033FE18B1034B4FF0D9
:1012100080521A60002383F3118808BD04ED00E0BA
:10122000084A0023136008490B60084B1B680849F3
:10123000A1FB03139B09013B06490B6007231360C5
:10124000704700BF10E000E018E000E00C00002054
:10125000D34D621014E000E010B50B4B1A6842F455
:1012600070021A601A6842F070421A60FFF7D8FFE5
:101270000024064B1C60FFF727FF00F031FFFFF74B
:1012800003FF204610BD00BF20ED00E0100000204D
:10129000EFF305830F2B01D9084A9B5C084B1B68B1
:1012A00013F4E06F08D04FF0500383F31188BFF3BD
:1012B0006F8FBFF34F8FFEE7704700BFF0E300E092
:1012C0000CED00E000F1080343604FF0FF32826054
:1012D000C36003610023036070470023036170470C
:1012E00043684B609A688A6051609960086103683E
:1012F00001330360704730B40D68B5F1FF3F11D082
:1013000000F108031C465B681A68AA42FAD96368B0
:101310004B6099608C606160086103680133036011
:1013200030BC70470469F2E70369416882688A60EB
:10133000416851605A68824206D0002202611A68F0
:10134000013A1A601868704782685A60F5E710B56C
:101350000446FFF7EFFEA26BE36B9A4204D0002431
:10136000FFF70AFF204610BD0124F9E710B5044637
:10137000FFF7E0FEA36B23B90124FFF7FDFE204633
:1013800010BD0024F9E770B504461546866B026C63
:101390005AB903681BB100200136A66370BD80688E
:1013A00000F0E2FF0023A360F6E76DB9406802F0A9
:1013B00021FA226C636813446360A268934219D3D4
:1013C000236863602846E7E7C06802F013FA226CDE
:1013D0005142E3689B1AE3602268934202D2A368F9
:1013E0000B44E360022D01D00020D5E726B1013E79
:1013F0000020D1E72846CFE70020CDE70346026C66
:101400006AB110B50846D9681144D9609C68A142F8
:1014100001D31968D960D96802F0ECF910BD7047A2
:1014200038B50546FFF786FE95F8454064B203E0FF
:1014300000F084FF013C64B2002C08DD6B6A33B11C
:1014400005F1240000F0E4FE0028F3D0F0E7FF23CC
:1014500085F84530FFF790FEFFF76CFE95F84440A5
:1014600064B203E000F06AFF013C64B2002C08DDC6
:101470002B6933B105F1100000F0CAFE0028F3D04B
:10148000F0E7FF2385F84430FFF776FE38BD000013
:1014900038B5E0B10D460446FFF74CFE2168E26B1B
:1014A000236C03FB0210A0600020A0636160013A7E
:1014B00002FB0313E360FF2384F8443084F84530D3
:1014C000EDB9236963B9FFF757FE012038BD4FF02E
:1014D000500383F31188BFF36F8FBFF34F8FFEE785
:1014E00004F1100000F094FE0028ECD0084B4FF0FF
:1014F00080521A60BFF34F8FBFF36F8FE3E704F1A1
:101500001000FFF7DFFE04F12400FFF7DBFEDAE74F
:1015100004ED00E038B51D46049C0B4649B9246033
:10152000E063236401212046FFF7B2FF84F84C50AA
:1015300038BD2260F4E740B94FF0500383F31188BF
:10154000BFF36F8FBFF34F8FFEE730B585B01C46FA
:10155000054653B192B189B94FF0500383F3118816
:10156000BFF36F8FBFF34F8FFEE74FF0500383F34E
:101570001188BFF36F8FBFF34F8FFEE76AB150231F
:101580000393039B502B13D04FF0500383F3118828
:10159000BFF36F8FBFF34F8FFEE70029EFD04FF0FF
:1015A000500383F31188BFF36F8FBFF34F8FFEE7B4
:1015B000039B012384F8463000949DF82030284690
:1015C000FFF7A8FF204605B030BD0000F0B585B09C
:1015D000019288B10E461D460446B1B1022D20D1BC
:1015E000E36B012B1DD04FF0500383F31188BFF341
:1015F0006F8FBFF34F8FFEE74FF0500383F31188D7
:10160000BFF36F8FBFF34F8FFEE7036C002BE5D066
:101610004FF0500383F31188BFF36F8FBFF34F8FE9
:10162000FEE700F091FE074658B9019B002B44D01D
:101630004FF0500383F31188BFF36F8FBFF34F8FC9
:10164000FEE7002739E02A4631462046FFF79BFE99
:10165000626A6AB938B13C4B4FF080521A60BFF3EE
:101660004F8FBFF36F8FFFF787FD012005B0F0BDEF
:1016700004F1240000F0CCFD0028F4D0324B4FF0F0
:1016800080521A60BFF34F8FBFF36F8FEBE7FFF706
:1016900073FD0020EAE702A800F000FE012719E030
:1016A000002384F8443021E0002384F8453023E00F
:1016B0002046FFF7B5FE00F071FCFFF73BFDA26B83
:1016C000E36B9A42BFD3022DBDD0019B002BDED02D
:1016D000002FE0D0FFF750FD00F0BCFBFFF72AFD24
:1016E00094F844305BB2B3F1FF3FD9D094F8453061
:1016F0005BB2B3F1FF3FD7D0FFF73EFD01A902A8CF
:1017000000F0D8FDC8B92046FFF721FE0028CFD051
:10171000019904F1100000F047FD2046FFF780FE1C
:1017200000F03CFC0028C8D1074B4FF080521A60F3
:10173000BFF34F8FBFF36F8FBFE72046FFF770FEF9
:1017400000F02CFC002091E704ED00E02DE9F843C7
:1017500090B1894690461F460446B1B1022F20D170
:10176000E36B012B1DD04FF0500383F31188BFF3BF
:101770006F8FBFF34F8FFEE74FF0500383F3118855
:10178000BFF36F8FBFF34F8FFEE7036C002BE5D0E5
:101790004FF0500383F31188BFF36F8FBFF34F8F68
:1017A000FEE7FFF775FDEFF311864FF0500383F36B
:1017B0001188BFF36F8FBFF34F8FA26BE36B9A4219
:1017C00006D3022F04D0002086F31188BDE8F883E9
:1017D00094F845506DB2A36B3A4649462046FFF750
:1017E000D2FDB5F1FF3F07D07F2D15D06B1C5BB24A
:1017F00084F845300120E7E7636A0BB90120E3E78D
:1018000004F1240000F004FD78B1B8F1000F0ED00F
:101810000120C8F80000D7E74FF0500383F3118888
:10182000BFF36F8FBFF34F8FFEE70120CCE701209E
:10183000CAE70000F0B585B0019290B10E460446AB
:10184000C1B100F081FD074600BB019B002B5CD0BD
:101850004FF0500383F31188BFF36F8FBFF34F8FA7
:10186000FEE74FF0500383F31188BFF36F8FBFF390
:101870004F8FFEE7036C002BE3D04FF0500383F350
:101880001188BFF36F8FBFF34F8FFEE700273CE057
:1018900031462046FFF7B2FD013DA563236923B918
:1018A000FFF76AFC012005B0F0BD04F1100000F064
:1018B000AFFC0028F4D0354B4FF080521A60BFF3D4
:1018C0004F8FBFF36F8FEBE7FFF756FC0020EAE77F
:1018D00002A800F0E3FC012721E0002384F8443053
:1018E00029E0002384F845302BE02046FFF798FDDF
:1018F00000F054FB09E02046FFF792FD00F04EFB9C
:101900002046FFF733FD00283DD1FFF713FCA56B00
:10191000002DBDD1019B002BD6D0002FD8D0FFF7D2
:101920002BFC00F097FAFFF705FC94F844305BB20B
:10193000B3F1FF3FD1D094F845305BB2B3F1FF3F34
:10194000CFD0FFF719FC01A902A800F0B3FC0028D2
:10195000D1D12046FFF70AFD0028C6D0019904F135
:10196000240000F021FC2046FFF75AFD00F016FB92
:101970000028CAD1054B4FF080521A60BFF34F8F39
:10198000BFF36F8FC1E700208DE700BF04ED00E0DB
:10199000002300E00133072B0BD8064A52F833200E
:1019A000002AF7D1034A42F8331002EBC303586010
:1019B00070477047A017002070B504460D461646C4
:1019C000FFF7B8FB94F844305BB2B3F1FF3F0DD0A2
:1019D00094F845305BB2B3F1FF3F0BD0FFF7CCFB7F
:1019E000A36B5BB12046FFF71BFD70BD002384F89D
:1019F0004430EDE7002384F84530EFE732462946CE
:101A000004F1240000F0E8FBECE70000074B1B6842
:101A10001B6823B9064B4FF0FF321A607047034B27
:101A20001B68DB681A68024B1A6070474C1500206F
:101A3000F41500202DE9F04780460D4617469946DB
:101A4000089EDDF824A00A9C9200A521206B01F0DD
:101A5000DFFE236B07F18042013A03EB820727F098
:101A60000707002D39D00022092A07D8A956A31844
:101A700083F83410AB560BB10132F5E7002384F83C
:101A80003D30042E00D90426E662A6640025E564F4
:101A9000201DFFF722FC04F11800FFF71EFC246153
:101AA000C6F10506A66164620422294604F15000CD
:101AB00001F0AEFE0122294604F1540001F0A8FE17
:101AC0004A4641463846FFF70FFB2060BAF1000F47
:101AD00001D0CAF80040BDE8F087002384F8343014
:101AE000CFE7000038B50024042C08D804EB8402AA
:101AF00093000E481844FFF7E5FB0134F4E70C4D62
:101B00002846FFF7DFFB0B4C2046FFF7DBFB0A48BC
:101B1000FFF7D8FB0948FFF7D5FB0948FFF7D2FBD1
:101B2000084B1D60084B1C6038BD00BF54150020D9
:101B3000CC150020E0150020001600202C160020F7
:101B4000181600204C1500205015002010B5044632
:101B5000FFF7F0FA214A136801331360204B1B682A
:101B60005BB1204B1B686BB91D4B1B68DA6AE36ADB
:101B70009A4207D81A4B1C6004E0194B1C6013688A
:101B8000012B27D0184A1368013313602364E06ADD
:101B900001238340154A11680B43136000EB80005A
:101BA000211D134B03EB8000FFF79AFBFFF7E4FACC
:101BB0000C4B1B686BB10A4B1B68DA6AE36A9A42EA
:101BC00007D20C4B4FF080521A60BFF34F8FBFF318
:101BD0006F8F10BDFFF786FFD4E700BFB815002058
:101BE0004815002014160020C4150020C815002038
:101BF0005415002004ED00E010B5044690F855306F
:101C000063B1012B11D0022B0ED04FF0500383F3A0
:101C10001188BFF36F8FBFF34F8FFEE7006BFFF7A5
:101C200027FA2046FFF724FA10BDFFF721FAFBE759
:101C30000F4B1B68D3B110B5FFF77CFA0D4BDB6877
:101C4000DC68201DFFF770FB0B4A1368013B136033
:101C5000074A1368013B1360FFF78EFA2046FFF72F
:101C6000CBFF034B1B68002BE6D110BD704700BFB4
:101C7000BC1500202C160020B815002070B50446B5
:101C80000D461D4B1E681D4B18680430FFF74CFBBA
:101C900050B91A4B1B68DA6A012303FA02F2184999
:101CA0000B6823EA02030B60B4F1FF3F0DD034440C
:101CB000124B1B685C60A64210D9124B18680F4B80
:101CC00019680431FFF717FB70BD002DEFD00B4BE7
:101CD000196804310C48FFF703FBF5E70B4B186854
:101CE000064B19680431FFF706FB094B1B68A3423A
:101CF000EAD9074B1C60E7E7401600204815002092
:101D0000C815002050150020181600204C15002082
:101D1000F415002008B509E0084B4FF080521A6016
:101D2000BFF34F8FBFF36F8F00F0F8FFFFF780FF17
:101D3000034B1B68012BEFD8F6E700BF04ED00E072
:101D40005415002070B586B00B9D0C9C75B1B4B1D4
:101D500058260496049E582E1AD04FF0500383F351
:101D60001188BFF36F8FBFF34F8FFEE74FF0500323
:101D700083F31188BFF36F8FBFF34F8FFEE74FF0F0
:101D8000500383F31188BFF36F8FBFF34F8FFEE7CC
:101D9000049E2563022584F855500025039502947E
:101DA00005AD01950A9D0095FFF744FE2046FFF71B
:101DB000CDFE059806B070BD10B588B0002405941E
:101DC000069407AA06A905A800F0B2FF059B029396
:101DD000069B019300942346079A18491848FFF779
:101DE000B1FF58B100F080FB0346012B08D0B3F1DE
:101DF000FF3F1AD0134B1B6808B010BD0023F4E757
:101E00004FF0500383F31188BFF36F8FBFF34F8FF1
:101E10000D4B4FF0FF321A600C4B01221A600C4B35
:101E200000221A60FFF718FAE4E74FF0500383F33B
:101E30001188BFF36F8FBFF34F8FFEE7007F00085D
:101E4000151D000814000020F415002014160020B1
:101E500040160020024A136801331360704700BF28
:101E6000C0150020014B1868704700BF40160020C5
:101E7000F8B53F4B1B68002B70D13E4B1D680135F8
:101E80001D60C5B93C4B1B681B6843B14FF0500344
:101E900083F31188BFF36F8FBFF34F8FFEE7364A8E
:101EA0001168364B186810601960354A13680133A1
:101EB0001360FFF7ABFD334B1B68AB4241D90024E5
:101EC000314B1B68DB6A03EB83039A002F4B9B5853
:101ED000012B00D901242E4B1B68002B3BD02D4B2E
:101EE0001B68002B41D001243FE00124224B1B68DA
:101EF0001B6843B3204B1B68DB68DE6873689D4238
:101F000026D3371D3846FFF70FFAB36A1BB106F127
:101F10001800FFF709FAF36A01229A401E4908687F
:101F200002430A6003EB83039A00394617481044C2
:101F3000FFF7D6F9F26A144B1B68DB6A9A42D4D2D7
:101F4000D4E70024D2E70F4B4FF0FF321A60B7E717
:101F50000C4A1360B4E700F0E0FEC0E70C4A1368D7
:101F60000133136000F0D9FE00242046F8BD00BF05
:101F7000C0150020401600204C15002050150020F0
:101F8000F8150020F41500204815002054150020F5
:101F9000FC15002044160020C815002038B5344B2D
:101FA0001B6843B94FF0500383F31188BFF36F8F61
:101FB000BFF34F8FFEE7FFF7BDF82D4B1A68013ACC
:101FC0001A601B68002B4DD12A4B1B680BB90024EB
:101FD00049E00024284B1B681BB3274BDB68DC68F7
:101FE00004F11800FFF7A0F9251D2846FFF79CF91A
:101FF000E06A01238340214A11680B43136000EB20
:10200000800029461E4B03EB8000FFF769F9E26A66
:102010001C4B1B68DB6A9A42DCD31B4B01221A6003
:10202000D8E70CB1FFF7F2FC184B1C6874B9164BDB
:102030001C68C4B1164B4FF080521A60BFF34F8F2B
:10204000BFF36F8F01240EE0013C07D0FFF710FFB4
:102050000028F9D00C4B01221A60F5E70B4B002247
:102060001A60E4E70024FFF787F8204638BD00BF78
:10207000C0150020B815002000160020C81500204B
:10208000541500204815002044160020FC1500209F
:1020900004ED00E010B5A8B104460F4B1B6843B136
:1020A0004FF0500383F31188BFF36F8FBFF34F8F4F
:1020B000FEE7FFF7CFFE00212046FFF7DFFDFFF729
:1020C0006DFF38B9054B4FF080521A60BFF34F8F48
:1020D000BFF36F8F10BD00BFC015002004ED00E0FE
:1020E0002C4B1B681BB12C4B01221A60704710B59A
:1020F000294B00221A60294B1B681B6B1A68B2F12E
:10210000A53F03D15A68B2F1A53F1BD0234B1868F5
:102110001968343100F003FE214B1B68B3FA83F3D6
:10212000DBB2C3F11F0303EB83018A001D498A5808
:102130008AB94FF0500383F31188BFF36F8FBFF359
:102140004F8FFEE79A68B2F1A53FDFD1DB68B3F1AC
:10215000A53FDBD1E0E7134903EB830082000A448B
:1021600050684068506003EB8304A20014460832B4
:102170001144884209D003EB83039A00094B1344AE
:102180005B68DA68054B1A6010BD4068054A224456
:102190005060F0E7C01500204416002048150020CC
:1021A000C81500205415002058B110B50C46094B35
:1021B00019681831FFF79FF801212046FFF75EFDEF
:1021C00010BD4FF0500383F31188BFF36F8FBFF33F
:1021D0004F8FFEE74815002038B570B10C46154604
:1021E0000A4B19681831FFF77BF80DB14FF0FF3437
:1021F00029462046FFF742FD38BD4FF0500383F3D8
:102200001188BFF36F8FBFF34F8FFEE74815002093
:1022100038B5C368DC6824B304F118052846FFF715
:1022200083F8184B1B682BBB251D2846FFF77CF84D
:10223000E06A01238340144A11680B43136000EBEA
:1022400080002946114B03EB8000FFF749F8E26A52
:102250000F4B1B68DB6A9A4211D901200D4B1860A5
:102260000EE04FF0500383F31188BFF36F8FBFF37D
:102270004F8FFEE729460848FFF732F8E7E70020CE
:1022800038BD00BFC0150020C8150020541500201F
:10229000481500204416002000160020034B1B6840
:1022A0000360034B1B684360704700BFF8150020B4
:1022B00040160020F8B5B8B10C460546E9B1FEF766
:1022C00039FF1C4B19686B68C81A2268B2F1FF3FCE
:1022D0002AD02F68184E3668B74217D08B4215D8CF
:1022E00000232360012420E04FF0500383F3118882
:1022F000BFF36F8FBFF34F8FFEE74FF0500383F3B1
:102300001188BFF36F8FBFF34F8FFEE7824203D870
:1023100000232360012408E05B1A1344236028464D
:10232000FFF7BCFF002400E00024FEF725FF204655
:10233000F8BD00BF40160020F8150020014B012217
:102340001A60704744160020054B1B6833B1054BDB
:102350001B680BB1002070470220704701207047B6
:1023600014160020C0150020002846D038B50446B9
:10237000244B1B68834208D04FF0500383F311882D
:10238000BFF36F8FBFF34F8FFEE7C36C43B94FF0BE
:10239000500383F31188BFF36F8FBFF34F8FFEE7B6
:1023A000013BC364C16A826C914228D00BB100200A
:1023B00038BD051D2846FEF7B7FF40B9E26A012384
:1023C00003FA02F210490B6823EA02030B60A06CC7
:1023D000E062C0F10503A361012404FA00F30A4A94
:1023E00011680B43136000EB80002946074B03EB99
:1023F0008000FEF775FF2046DAE7002070470020D6
:10240000D6E700BF48150020C8150020541500204D
:10241000064B1A6813682BB90123036023B9D368EC
:10242000186870470023F8E700207047481600201E
:1024300008B54160006191420CD8D21A83699A4272
:1024400001D3012008BD011D094B1868FEF753FF99
:102450000020F7E79A4201D2994206D2011D054BAE
:102460001868FEF748FF0020ECE70120EAE700BF0C
:102470004C1600204816002030B583B0FEF75AFEF7
:10248000114B1B681BB1FEF777FE03B030BD0F4D3B
:102490002846FEF717FF0E4C2046FEF713FF0D4BA4
:1024A0001D600D4B1C60002300930C4B0C4A0C214B
:1024B0000A20FFF740F8044B18600028E3D00949D0
:1024C000FFF766FADFE700BF44170020C8160020B8
:1024D000DC160020481600204C160020F4160020C0
:1024E00050160020087F000810B588B0FFF7C4FF21
:1024F000124B1B68CBB100240594069407AA06A9C9
:1025000005A800F01FFC059B0293069B0193022384
:1025100000932346079A0A490A48FFF713FC0A4A20
:10252000106010B1012008B010BD4FF0500383F3CC
:102530001188BFF36F8FBFF34F8FFEE74417002062
:10254000107F00083D28000848170020C0B110B5D2
:1025500084B014461A4603461648006838B3019101
:102560000294039305291CDCFFF7EEFE022810D02D
:1025700000231A4601A90F480068FFF727F814E066
:102580004FF0500383F31188BFF36F8FBFF34F8F6A
:10259000FEE70023069A01A906480068FFF716F82F
:1025A00003E0002301A9FFF7D1F804B010BD00201B
:1025B000FBE700BF4417002070B582B01B4B1B68BF
:1025C0001A6862B3DB681E68DC68251D2846FEF7C2
:1025D000ABFE236A2046984794F8283013F0040F86
:1025E000ECD0A36933449E4207D26360246129463C
:1025F0000E4B1868FEF77FFEE0E7002100910B46C6
:1026000032462046FFF7A2FF0028D7D14FF05003F3
:1026100083F31188BFF36F8FBFF34F8FFEE7044A38
:10262000106802490860136002B070BD48160020AF
:102630004C16002038B50546FFF714FC0446074B3E
:102640001B68834205D800232B60044B1C60204686
:1026500038BDFFF7B1FF01232B60F6E7F01600202D
:1026600070B582B005460E46174B1B68DB68DC6808
:10267000201DFEF759FE94F8283013F0040F08D1FE
:1026800023F0010384F82830236A2046984702B0DB
:1026900070BDA1692B46324629442046FFF7C8FE8B
:1026A0000028F1D0002100910B462A462046FFF772
:1026B0004DFF0028E8D14FF0500383F31188BFF39A
:1026C0006F8FBFF34F8FFEE74816002070B582B0C2
:1026D00006460C46FFF7BEFB01A8FFF7ABFF019BC8
:1026E00023BB05460CB9B04217D224B1114A126877
:1026F0001268CAB901242246711B0F4B1868FFF7F4
:102700005BF9FFF74BFC98B90C4B4FF080521A6005
:10271000BFF34F8FBFF36F8F0AE0FFF73FFC2946EF
:102720003046FFF79DFF03E01C46E4E7FFF736FC69
:1027300002B070BD4C1600204417002004ED00E0EC
:1027400010B586B0002203A93B4B1868FFF772F85A
:1027500000286ED0039B002BF4DB059C636913B14A
:10276000201DFEF7E1FD02A8FFF764FF039B092B84
:10277000E8D8DFE803F005050530375005053037A8
:1027800094F8283043F0010384F82830049BA169B1
:10279000024619442046FFF74BFE0028D2D0236A98
:1027A0002046984794F8283013F0040FCAD0A26945
:1027B000002100910B46049802442046FFF7C6FE14
:1027C0000028BFD14FF0500383F31188BFF36F8F00
:1027D000BFF34F8FFEE794F8283023F0010384F80D
:1027E0002830AFE794F8283043F0010384F828300C
:1027F0000499A16131B10346024601442046FFF726
:1028000017FE9FE74FF0500383F31188BFF36F8FDC
:10281000BFF34F8FFEE794F8283013F0020F04D077
:1028200023F0010384F828308CE72046FEF720FCD3
:1028300088E706B010BD00BF4417002000B583B084
:1028400001A8FFF7E5FD0199FFF740FFFFF778FFCB
:10285000F6E710B4016042600373012303FA02F249
:10286000826010BC704700002DE9F04106460D461D
:102870000024262C08DC29461C4B53F8340000F0B9
:1028800079FF08B90134F4E7184B53F8347029463E
:10289000384600F051FF38B1144B03EBC4046068B4
:1028A00000F07CFFBDE8F08104F1FF380F4B53F8D6
:1028B0003810284600F0A2FC05467168384600F042
:1028C0009DFC0146284600F05FFF30B1074B03EB4B
:1028D000C404606800F062FFE4E7044B03EBC8083F
:1028E000D8F8040000F05AFFDCE700BF1800002011
:1028F00030B595B000240194214B1A6C42F08052FF
:102900001A641B6C03F080530193019B02941D4BCE
:102910001A6842F480421A601B6803F480430293F1
:10292000029B0123089309934FF480030F9308231C
:1029300010934FF4A8731193022512950723139354
:102940000E9508A8FDF73AFE0F230393049505940E
:102950004FF4A05306934FF480530793052103A827
:10296000FEF794F8FEF7BEF9074BA3FB0030800991
:10297000FDF7F0FD0420FDF703FE15B030BD00BFEC
:102980000038024000700040D34D621008B5FDF7DA
:102990005DFD0320FDF77AFDFFF7AAFFFEF718FBA8
:1029A00008BD08B50120FFF775FBFBE7000000003C
:1029B000F0B58FB0744B0A221A604FF07E53039328
:1029C00000230493059300240694079408944FF47D
:1029D000FA7209920A930B930C930D936B4D07E0D7
:1029E000694A1368013313604FF4FA60FFF752FB32
:1029F00040F6DD539C4263DC00F0C0F900F0CEFEEF
:102A0000044600F0DBF96428EAD1204600F0ACFC73
:102A1000014601A8FFF728FF064600F0BFF900F0C5
:102A2000BDFE05460346324621465948FEF7BCF92D
:102A3000284600F099FC0746304600F095FC014618
:102A40003A4603A800F017F9284400F08DFC05462B
:102A500000F028FB02460B464E48FEF7A5F9BFE7FB
:102A600040F6DE539C4234DD4B49284600F08CFE94
:102A7000F0B14A48FEF798F921464948FEF794F923
:102A8000484800F06FF9284600F00CFB3CA3D3E95E
:102A9000002300F0A7F900F05DFB054600F002FB03
:102AA00002460B464048FEF77FF901E0002847D078
:102AB000354A1368013313604FF4FA60FFF7EAFAFE
:102AC00000F05CF900F06AFE044600F077F9642833
:102AD000C6D040F6DD539C42E8DC6428E6D133489A
:102AE000FEF762F9204600F03FFC014601A8FFF71F
:102AF000BBFE054621462A48FEF756F900F04EF97E
:102B000000F04CFE0446024629462948FEF74CF9DF
:102B1000204600F029FC0646284600F025FC014628
:102B2000324603A800F0A7F8204400F01DFC05463B
:102B300000F0B8FA02460B461B48FEF735F9B7E736
:102B40001C48FEF731F921461548FEF72DF91A48C1
:102B500000F008F9284600F0A5FA09A3D3E90023FC
:102B600000F042F900F0F6FA054600F09BFA024642
:102B70000B460D48FEF718F99AE700BFAFF3008047
:102B8000333333333333D33F8C1700200000A0425C
:102B9000187F0008507F000800007041647F000823
:102BA000747F00080000C842807F0008947F0008FE
:102BB000A87F0008D47F00080000C8C2012800D008
:102BC00070474FF6FF739942FAD110B50E4C0023AF
:102BD0000C2203212046FFF73CFE00230D22032197
:102BE00004F11000FFF735FE00230E22032104F14B
:102BF0002000FFF72EFE00230F22032104F13000F6
:102C0000FFF727FE10BD00BF4C17002000B585B0B0
:102C100072B6104C029404F15803019302230093FE
:102C200000234FF480720C490C48FFF78BF804F531
:102C30008B63029304F596640194012300930023AF
:102C40004FF4807206490748FFF77CF862B6FFF739
:102C5000B3F8FEE744050020E47F0008B12900082E
:102C6000EC7F0008A329000808B54FF6FF7101208A
:102C7000FFF7A4FF08BD2DE9F041044608461146C0
:102C800000F0BCFA0546206900F06EFB0746A0691B
:102C900000F06AFB0646294600F0BAFB01463846BA
:102CA00000F0AEFA0746E06800F05EFB01462846F9
:102CB00000F0A4FA314600F05FFC80462946206807
:102CC00000F0A6FB06463946606800F0A1FB01460D
:102CD000304600F095FA06464146A06800F098FBA1
:102CE0000146304600F08CFA0646606900F03CFB75
:102CF0000146304600F084FA0646284600F04EFDB4
:102D0000E060384600F04AFD2061304600F02AF8C5
:102D1000304600F043FDBDE8F081704770474FF04A
:102D2000500383F31188BFF36F8FBFF34F8FFEE71C
:102D3000034B036058330B6082231360704700BF5E
:102D4000F40D002010B4064B03F51874046003F56D
:102D50002E730B604FF48273136010BC704700BF7A
:102D6000F40D002008B500F09DF902460B4602481C
:102D7000FEF71AF808BD00BFF47F000808B5054B40
:102D80001B6803EB43039A00034B985800F0ECFADE
:102D900008BD00BF8C1700205001002008B5054B6E
:102DA0001B6803EB43039A00034B1344586800F07D
:102DB000DBFA08BD8C17002050010020044B1B6873
:102DC00003EB43039A00034B13449868704700BF1A
:102DD0008C170020500100207047000081F0004156
:102DE00002E000BF83F0004330B54FEA41044FEAF0
:102DF000430594EA050F08BF90EA020F1FBF54EA8B
:102E0000000C55EA020C7FEA645C7FEA655C00F026
:102E1000E2804FEA5454D4EB5555B8BF6D420CDDF7
:102E20002C4480EA020281EA030382EA000083EA7A
:102E3000010180EA020281EA0303362D88BF30BD1A
:102E400011F0004F4FEA01314FF4801C4CEA113170
:102E500002D0404261EB410113F0004F4FEA0333CF
:102E60004CEA133302D0524263EB430394EA050F5A
:102E700000F0A780A4F10104D5F1200E0DDB02FAC9
:102E80000EFC22FA05F2801841F1000103FA0EF25D
:102E9000801843FA05F359410EE0A5F120050EF123
:102EA000200E012A03FA0EFC28BF4CF0020C43FA54
:102EB00005F3C01851EBE37101F0004507D54FF061
:102EC000000EDCF1000C7EEB00006EEB0101B1F5B1
:102ED000801F1BD3B1F5001F0CD349085FEA3000F7
:102EE0004FEA3C0C04F101044FEA445212F5800F02
:102EF00080F09A80BCF1004F08BF5FEA500C50F19F
:102F0000000041EB045141EA050130BD5FEA4C0C81
:102F1000404141EB0101013C28BFB1F5801FE9D2DE
:102F200091F0000F04BF01460020B1FA81F308BF01
:102F30002033A3F10B03B3F120020CDA0C3208DDCD
:102F400002F1140CC2F10C0201FA0CF021FA02F1A8
:102F50000CE002F11402D8BFC2F1200C01FA02F118
:102F600020FA0CFCDCBF41EA0C019040E41AA2BF3D
:102F700001EB0451294330BD6FEA04041F3C1CDA05
:102F80000C340EDC04F11404C4F1200220FA04F025
:102F900001FA02F340EA030021FA04F345EA0301CF
:102FA00030BDC4F10C04C4F1200220FA02F001FA91
:102FB00004F340EA0300294630BD21FA04F0294613
:102FC00030BD94F0000F83F4801306BF81F48011AC
:102FD0000134013D4EE77FEA645C18BF7FEA655C1F
:102FE00029D094EA050F08BF90EA020F05D054EAF1
:102FF000000C04BF1946104630BD91EA030F1EBFF6
:103000000021002030BD5FEA545C05D140004941F9
:1030100028BF41F0004130BD14F580043CBF01F5EC
:10302000801130BD01F0004545F0FE4141F47001D2
:103030004FF0000030BD7FEA645C1ABF19461046AD
:103040007FEA655C1CBF0B46024650EA013406BFAE
:1030500052EA033591EA030F41F4002130BD00BF6D
:1030600090F0000F04BF0021704730B54FF480642A
:1030700004F132044FF000054FF0000150E700BFAB
:1030800090F0000F04BF0021704730B54FF480640A
:1030900004F1320410F0004548BF40424FF00001F7
:1030A0003EE700BF42004FEAE2014FEA31014FEA3A
:1030B00002701FBF12F07F4393F07F4F81F0605189
:1030C000704732F07F4208BF704793F07F4F04BFD4
:1030D00041F40021704730B54FF4607401F00045B1
:1030E00021F000411CE700BF50EA010208BF704711
:1030F00030B54FF000050AE050EA010208BF704702
:1031000030B511F0004502D5404261EB41014FF46A
:10311000806404F132045FEA915C3FF4D8AE4FF072
:1031200003025FEADC0C18BF03325FEADC0C18BF55
:10313000033202EBDC02C2F1200300FA03FC20FAA6
:1031400002F001FA03FE40EA0E0021FA02F11444F3
:10315000BDE600BF4FEA4102B2F1E04324BFB3F540
:10316000001CDCF1FE5C0DD901F0004C4FEAC002FE
:103170004CEA5070B2F1004F40EB830008BF20F0E2
:103180000100704711F0804F21D113F13872BCBF9C
:1031900001F00040704741F480114FEA5252C2F1F1
:1031A0001802C2F1200C10FA0CF320FA02F018BF3A
:1031B00040F001004FEAC1234FEAD32303FA0CFC8D
:1031C00040EA0C0023FA02F34FEA4303CCE77FEA1C
:1031D000625307D150EA01331EBF4FF0FE4040F466
:1031E0004000704701F0004040F0FE4040F4000015
:1031F000704700BF80F0004002E000BF81F0004156
:1032000042001FBF5FEA410392EA030F7FEA226C8C
:103210007FEA236C6AD04FEA1262D2EB1363C1BF1C
:10322000D218414048404140B8BF5B42192B88BF8B
:10323000704710F0004F40F4000020F07F4018BFAE
:10324000404211F0004F41F4000121F07F4118BFCE
:10325000494292EA030F3FD0A2F1010241FA03FC76
:1032600010EB0C00C3F1200301FA03F100F000435E
:1032700002D5494260EB4000B0F5000F13D3B0F126
:10328000807F06D340084FEA310102F10102FE2A95
:1032900051D2B1F1004F40EBC25008BF20F0010005
:1032A00040EA03007047490040EB0000013A28BFA4
:1032B000B0F5000FEDD2B0FA80FCACF1080CB2EB27
:1032C0000C0200FA0CF0AABF00EBC25052421843A5
:1032D000BCBFD0401843704792F0000F81F400014A
:1032E00006BF80F400000132013BB5E74FEA41031D
:1032F0007FEA226C18BF7FEA236C21D092EA030F89
:1033000004D092F0000F08BF0846704790EA010F02
:103310001CBF0020704712F07F4F04D1400028BF2F
:1033200040F00040704712F100723CBF00F5000011
:10333000704700F0004343F0FE4040F40000704747
:103340007FEA226216BF08467FEA236301464202F3
:1033500006BF5FEA412390EA010F40F48000704706
:103360004FF0000304E000BF10F0004348BF4042AC
:103370005FEA000C08BF704743F0964301464FF0E8
:1033800000001CE050EA010208BF70474FF0000344
:103390000AE000BF50EA010208BF704711F0004385
:1033A00002D5404261EB41015FEA010C02BF844655
:1033B0000146002043F0B64308BFA3F18053A3F5B4
:1033C0000003BCFA8CF2083AA3EBC25310DB01FAFB
:1033D00002FC634400FA02FCC2F12002BCF1004F7F
:1033E00020FA02F243EB020008BF20F00100704710
:1033F00002F1200201FA02FCC2F1200250EA4C0064
:1034000021FA02F243EB020008BF20EADC707047A9
:103410004FF0FF0C1CEAD0521EBF1CEAD15392EAB7
:103420000C0F93EA0C0F6FD01A4480EA010C400293
:1034300018BF5FEA41211ED04FF0006343EA5010ED
:1034400043EA5111A0FB01310CF00040B1F5000F2F
:103450003EBF490041EAD3715B0040EA010062F1DE
:103460007F02FD2A1DD8B3F1004F40EBC25008BFC8
:1034700020F00100704790F0000F0CF0004C08BFE6
:1034800049024CEA502040EA51207F3AC2BFD2F1B3
:10349000FF0340EAC250704740F400004FF00003C1
:1034A000013A5DDC12F1190FDCBF00F000407047FB
:1034B000C2F10002410021FA02F1C2F1200200FA39
:1034C00002FC5FEA310040F1000053EA4C0308BF00
:1034D00020EADC70704792F0000F00F0004C02BF51
:1034E000400010F4000F013AF9D040EA0C0093F0CC
:1034F000000F01F0004C02BF490011F4000F013B26
:10350000F9D041EA0C018FE70CEAD15392EA0C0F93
:1035100018BF93EA0C0F0AD030F0004C18BF31F0FE
:10352000004CD8D180EA010000F00040704790F0D4
:10353000000F17BF90F0004F084691F0000F91F078
:10354000004F14D092EA0C0F01D142020FD193EA3E
:103550000C0F03D14B0218BF084608D180EA0100C6
:1035600000F0004040F0FE4040F40000704740F0A2
:10357000FE4040F4400070474FF0FF0C1CEAD05270
:103580001EBF1CEAD15392EA0C0F93EA0C0F69D0CC
:10359000A2EB030280EA010C49024FEA402037D037
:1035A0004FF0805343EA111143EA10130CF000402E
:1035B0008B4238BF5B0042F17D024FF4000C8B421E
:1035C00024BF5B1A40EA0C00B3EB510F24BFA3EBFE
:1035D000510340EA5C00B3EB910F24BFA3EB9103CE
:1035E00040EA9C00B3EBD10F24BFA3EBD10340EA28
:1035F000DC001B0118BF5FEA1C1CE0D1FD2A3FF66E
:1036000050AF8B4240EBC25008BF20F00100704722
:103610000CF0004C4CEA50207F32C2BFD2F1FF03C5
:1036200040EAC250704740F400004FF00003013AF6
:1036300037E792F0000F00F0004C02BF400010F49A
:10364000000F013AF9D040EA0C0093F0000F01F0AE
:10365000004C02BF490011F4000F013BF9D041EAD0
:103660000C0195E70CEAD15392EA0C0F08D1420203
:103670007FF47DAF93EA0C0F7FF470AF084676E7D6
:1036800093EA0C0F04D14B023FF44CAF08466EE7AF
:1036900030F0004C18BF31F0004CCAD130F000427D
:1036A0007FF45CAF31F000437FF43CAF5FE700BFD5
:1036B0004FF0FF3C06E000BF4FF0010C02E000BFFE
:1036C0004FF0010C4DF804CD4FEA40024FEA4103A0
:1036D0007FEA226C18BF7FEA236C11D001B052EA56
:1036E000530C18BF90EA010F58BFB2EB030088BF1C
:1036F000C81738BF6FEAE17018BF40F0010070478B
:103700007FEA226C02D15FEA402C05D17FEA236C6C
:10371000E4D15FEA412CE1D05DF8040B704700BFB3
:10372000844608466146FFE70FB5FFF7C9FF00284A
:1037300048BF10F1000F0FBD4DF808EDFFF7F4FF83
:103740000CBF012000205DF808FB00BF4DF808ED1C
:10375000FFF7EAFF34BF012000205DF808FB00BF3F
:103760004DF808EDFFF7E0FF94BF012000205DF861
:1037700008FB00BF4DF808EDFFF7D2FF94BF012012
:1037800000205DF808FB00BF4DF808EDFFF7C8FF0B
:1037900034BF012000205DF808FB00BF4FEA400263
:1037A000B2F1FE4F0FD34FF09E03B3EB12620DD96F
:1037B0004FEA002343F0004310F0004F23FA02F0D9
:1037C00018BF404270474FF00000704712F1610F80
:1037D00001D1420205D110F0004008BF6FF0004057
:1037E00070474FF000007047014B1868704700BFEA
:1037F0006C0300200A44914200F1FF3300D170476E
:1038000010B511F8014B03F8014F9142F9D110BDE9
:1038100002440346934200D1704703F8011BF9E7C5
:103820002DE9F04788B0002B1F461446B8BF03F1BE
:103830000043129A109DDDF84CA0B6BF1F4600232E
:103840002D231370149B23F02008B8F1460F05D0E8
:10385000B8F1450F00D10135022300E0032307AA88
:10386000049206AACDE902A2CDE9003522463B46E4
:1038700001F0DAFDB8F1470F064602D1119BDB07D4
:1038800022D5B8F1460F06EB050910D13378302B5D
:103890000AD1002200232046394604F043F918B922
:1038A000C5F10105CAF80050DAF800309944002249
:1038B00000232046394604F035F908B1CDF81C90B4
:1038C0003022079B4B4507D3079B159A9B1B30461D
:1038D000136008B0BDE8F087591C07911A70F0E733
:1038E000F7B503460029B8BF494203F8022BB4BF1D
:1038F0002D222B22092942702ADD0DF10704A4464E
:103900000A27A6460A4691FBF7F607FB161530353F
:10391000632A04F1FF340EF8015C3146F1DC3031EA
:10392000AEF1020504F8011C441C294661450AD386
:103930000DF10902A2EB0E02654588BF0022134477
:10394000181A03B0F0BD11F8012B04F8012FEDE7B0
:10395000302330318370C170031DF1E72DE9F04F42
:1039600091B00C46DDF8688016461F46054602F009
:10397000ADFE03680993184600F0E2FD00230E93A4
:10398000D8F800300A90073323F0070303F1080248
:1039900094F81890D4F800B0C8F80020D3E90023B8
:1039A000C4E91223D4E9128A2AF000430B930B993D
:1039B0009C4B4FF0FF32404604F0E6F870BB994B49
:1039C0000B994FF0FF32404604F0C0F830BB0022A4
:1039D00000234046514604F0AFF810B12D2384F87F
:1039E0004330914B9148B9F1470F94BF98468046B8
:1039F000032323612BF0040323604FF0000A009798
:103A000033460FAA2146284600F0D2F9013040F093
:103A10008F804FF0FF3011B0BDE8F08F4246534623
:103A20004046514604F0B0F840B1BAF1000FBCBFB7
:103A30002D2384F843307E487E4BD4E763685A1CBC
:103A400009F0DF0142D106236360002206920EAA2C
:103A5000CDE904920DAA4BF4806303920DF1330279
:103A6000CDE90132236063680093424653462846FD
:103A70000B91FFF7D5FE0B99472980460D9908D188
:103A8000C81C02DB6368994240DDA9F102095FFAB4
:103A900089F9B9F1650F1FD801394A4604F1500080
:103AA0000D91FFF71DFF0E9A1318012A824623611C
:103AB00002DC2268D20701D5013323619DF833303F
:103AC000002B9CD02D2384F8433098E74729BCD1A4
:103AD000002BBAD10123B7E7B9F1660F18D100293D
:103AE00063680BDD216113B92268D00702D5013369
:103AF0000B442361A1654FF0000ADFE713B9226888
:103B0000D20701D50233F4E70123F2E74FF067094A
:103B10000E9B994205DB23682161D807EAD54B1C2F
:103B2000E7E70029D4BFC1F1020201221344E0E714
:103B300023685A0507D42369424631462846B847C8
:103B400001302BD165E7B9F1650F40F2DC80D4E993
:103B500012010022002303F0E5FF002833D0364A8B
:103B6000012331462846B84701303FF452AFDDE922
:103B70000D239A4202DB2368D8070FD5DDE909231C
:103B800031462846B84701303FF443AF4FF00008B4
:103B900004F11A090E9B013B434509DC23689B078E
:103BA00000F10181E0680F9B9842B8BF184632E7E8
:103BB00001234A4631462846B84701303FF429AF31
:103BC00008F10108E6E70D9B002B37DC1A4A0123B8
:103BD00031462846B84701303FF41BAFDDE90D23DD
:103BE000134302D12368D907D8D5DDE9092331462B
:103BF0002846B84701303FF40CAF4FF0000904F1FC
:103C00001A0A0D9B5B424B4501DC0E9B94E7012396
:103C1000524631462846B84701303FF4FAAE09F122
:103C20000109EEE7FFFFEF7F098000080D80000823
:103C30001580000811800008198000080E9AA36DF5
:103C40009A42A8BF1A46002A914637DC4FF0000B73
:103C500029EAE97904F11A02D4F858A0AAEB090379
:103C60005B4533DCDDE90D239A423BDB2368DA0751
:103C700038D40E9A0D99A2EB0A03A2EB01099945DB
:103C8000A8BF9946B9F1000F34DC4FF0000829EACB
:103C9000E97904F11A0ADDE90D239B1AA3EB090364
:103CA00043457FF77BAF0123524631462846B8474C
:103CB00001303FF4AEAE08F10108ECE7134631469F
:103CC00042462846B8470130C0D1A2E6012331461A
:103CD00028460B92B84701303FF49BAE0B9A0BF18C
:103CE000010BB9E7DDE9092331462846B847013021
:103CF000BFD18EE64B4608EB0A0231462846B8474C
:103D00000130C2D185E60E9A012A01DCDB0737D5E6
:103D10000123424631462846B84701303FF479AE88
:103D2000DDE9092331462846B84701303FF471AE3A
:103D3000D4E912010022002303F0F4FED8B90E9B4F
:103D400008F10102013B31462846B84701300ED147
:103D50005FE601234A4631462846B84701303FF422
:103D600058AE08F101080E9B013B4345F1DC534678
:103D700004F15002E1E64FF0000804F11A09F2E7FD
:103D800001234246DFE701234A4631462846B84729
:103D900001303FF43EAE08F10108E3680F995B1A69
:103DA0004345F0DCFEE64FF0000804F11909F4E7A2
:103DB0002DE9F047164699468A680B69DDF82080A0
:103DC0009342B8BF1346336091F8432007460C4630
:103DD0000AB1013333602368990642BF3368023366
:103DE0003360256815F0060506D104F1190AE36869
:103DF00032689B1AAB4226DC94F84320131E2268DB
:103E000018BF012392062BD404F1430249463846D9
:103E1000C04701301ED02368E568326803F006030E
:103E2000042B08BFAD1AA36822690CBF25EAE5750B
:103E300000259342C4BF9B1AED1800261A34B542E0
:103E40001AD1002008E00123524649463846C047AF
:103E5000013003D14FF0FF30BDE8F0870135C6E7F0
:103E6000E1185A1C302081F84300224494F8451090
:103E700082F843100233C7E70123224649463846F9
:103E8000C0470130E6D00136D9E700002DE9FF47F1
:103E90000C469146277E0C99782F80469A4604F16D
:103EA000430207D8622F0AD8002F00F0D880582F7D
:103EB00000F0A38004F1420684F842703AE0A7F1D2
:103EC0006303152BF6D801A050F823F0253F000816
:103ED000393F0008B53E0008B53E0008B53E000871
:103EE000B53E0008393F0008B53E0008B53E000861
:103EF000B53E0008B53E000845400008693F00088F
:103F000027400008B53E0008B53E0008674000089D
:103F1000B53E0008693F0008B53E0008B53E000800
:103F20002F4000080B681A1D1B680A6004F1420646
:103F300084F842300123A3E0256808682E0600F1CA
:103F400004030AD505680B60002D03DA2D236D42AA
:103F500084F843305E480A2319E015F0400F0568E5
:103F60000B6018BF2DB2EFE70B682568181D0860BD
:103F7000280601D51D6802E06906FBD51D88544856
:103F80006F2F0CBF08230A23002184F843106668B2
:103F9000A660002EA2BF216821F0040121600DB9A6
:103FA000002E4DD01646B5FBF3F103FB1157C75D4C
:103FB00006F8017D2F46BB420D46F4D9082B0BD1E4
:103FC0002368DF0708D5236961689942DEBF302383
:103FD00006F8013C06F1FF36921B2261CDF800A0E5
:103FE0004B4603AA21464046FFF7E2FE01304CD182
:103FF0004FF0FF3004B0BDE8F087354884F84570D5
:1040000023680E681F0656F8045B0E6014D5D907A6
:1040100044BF43F0200323601DB9236823F020032D
:1040200023601023B0E7236843F020032360782344
:10403000284884F84530E3E75E0648BFADB2E6E7BE
:104040001646BBE70B68266860691D1D0D603506C6
:104050001B6801D5186002E07106FBD518800023AB
:1040600023611646BAE70B681A1D0A601E6862686B
:104070000021304602F04CFB08B1801B6060636891
:104080002361002384F84330A8E723693246494678
:104090004046D0470130ABD023689B0713D4E0687B
:1040A000039B9842B8BF1846A4E70123324649460D
:1040B0004046D04701309BD00135E36803995B1A35
:1040C000AB42F2DCEBE7002504F11906F5E700BF8F
:1040D0001B8000082C8000082DE9F04F87B01746A0
:1040E00003938B685A1EB2F5AE7F83BF6FF4AE7533
:1040F0005B190293002386BF40F25D138B6002932D
:104100000B688B46002543F4F0634BF81C3BCDE96C
:10411000045580460C465E46AA46A9460195A2680B
:1041200052B13B681B784E2B64D8402B3CD8A3F18E
:104130002B01C8B20E283AD9B9F1000F03D0236879
:1041400023F4807323600AF1FF3ABAF1010F00F201
:1041500013815E4500F205810125284607B0BDE8C0
:10416000F08FA3F161020D2AE6D801A151F822F0E7
:10417000AF420008394100083941000839410008C0
:104180000F430008E74200083941000839410008A0
:10419000BD42000839410008394100083941000892
:1041A0003941000875420008A3F14102DBE70E29FE
:1041B000C2D801A050F821F0674200083941000838
:1041C00067420008FB420008394100081542000818
:1041D0005142000851420008514200085142000873
:1041E0005142000851420008514200085142000863
:1041F000514200086E2B09D8602BB2D8542B77D0CF
:10420000592B99D1072D97D1082529E0742B6FD010
:10421000792BF6E72168C8051AD5029B21F08001A9
:10422000216009F101091BB1013B01320293A26037
:10423000A368013BA3602369013323617B68013BD1
:10424000002B7B6040F384803B6801333B6066E772
:104250001AEB050F7FF470AF226822F4C07222605F
:1042600006F8013BE4E7226810067FF565AF22F00F
:104270008002F4E7BAF1000F0ED1B9F1000F0ED1B0
:10428000226802F4E061B1F5E06F08D122F4F06237
:1042900022604FF0010AE3E7BAF1020F55D0012D79
:1042A00002D0042D7FF448AF0135EDB2D8E7BAF162
:1042B000010F7FF441AF4FF0020AD1E77DB9B9F1A8
:1042C000000F7FF43CAF226802F4E061B1F5E06FCB
:1042D0007FF439AF22F4F06222600125C0E7032D9C
:1042E000E2D0052DDEE7022D7FF426AF0325B7E7E8
:1042F000062D7FF421AF0725B2E7226891057FF5EF
:104300001BAF22F420722260CDF80490A8E7226847
:1043100002F4A061B1F5806F06D050057FF50CAFB7
:10432000B9F1000F3FF40FAF910558BF019922F486
:10433000F06258BFA9EB010142F4C07258BFCDE949
:10434000041622604FF000098AE74FF0030A87E75E
:10435000D4F8803139464046984700283FF4DFAE14
:10436000EAE6D4F87C3116F8011D3A4640469847F3
:104370002369013B2361ECE66B1E062B25D8022D39
:1043800036D85E457FF6E8AED4F87C3116F8011DCC
:104390003A46404698472369013B2361F1E702987A
:1043A000D4F87C3110F8011D02903A4640469847F7
:1043B0002369013B23610AF1FF3A5FFA8AFABAF1F5
:1043C000020FECD1033DEDB2761B2368DA052FD541
:1043D0005B0510D55E457FF6BFAED4F87C3116F88C
:1043E000011D3A46404698472369013B2361F1E7A6
:1043F000AA460296DFE716F8011C2369652903F136
:10440000FF3306F1FF3523610CD045290AD0D4F8DB
:104410007C313A4640469847236916F8021C013B16
:10442000B51E2361D4F87C313A46404698472E4663
:10443000256815F0100559D13570236803F4C06361
:10444000B3F5806F1CD1019B4B45A3EB090224D12E
:1044500000225946404600F093FED4F800C0039B6A
:104460001CF0020F1B6806460F4621D003991A1D47
:104470000A601B68C3E90067E3680133E3606CE628
:10448000049B002BE4D005990A232A4601314046BB
:1044900000F002FF049B059EC21A04F26F139E42B5
:1044A00028BF04F5B7761249304600F029F8CFE767
:1044B0001CF0040F03F1040E03D00399C1F800E0CF
:1044C000D7E7039AC2F800E0D3F8008002460B4613
:1044D00003F05AFB28B1074800F00EF8C8F80000B6
:1044E000CAE730463946FEF735FEF7E7002534E6E1
:1044F0003D80000869840008004870470000C07FC4
:104500000EB400B59CB01DAB029006906FF0004158
:10451000094807910491094953F8042B0591006853
:10452000019302A902F00AFF029B00221A701CB03C
:104530005DF804EB03B070476C0300200802FFFF36
:10454000034613F8012B002AFBD1181A01387047D3
:104550002DE9F0410F46904602F096FC04460D46C8
:10456000B8F1000F11D0C7F30A53C3F16B03002B4E
:104570000BDD1B0503F17F55002405F54015224690
:104580002B4603F067F804460D4620462946BDE851
:10459000F0810000000000002DE9F04FA1B09B4623
:1045A00000231C93A14B17921F68824638460E4683
:1045B000FFF7C6FF4FF0000804464FF000091B96B6
:1045C0001B9B1A782B2A4CD03AD80D2A33D8082AAC
:1045D00033D8002A3DD000230C931B9D2B78302B21
:1045E00040F0AF806B7803F0DF03582B6CD10C9B4D
:1045F00001931CAB00938E4ACDF808B01DAB1BA9EC
:10460000504601F067FD10F00706044605D0062E5F
:1046100029D1013500231B950C93179B002B40F0EB
:1046200096850C9BD3B1424609F1004310461946CA
:1046300021B0BDE8F08F202ACDD101331B93BFE715
:104640002D2AC8D101220C925A1C1B925B78002B98
:10465000C3D1179B1B96002B40F0778542464B46F3
:10466000E4E70022EFE71C9A3AB135211EA802F0D8
:104670000FFD1C99504602F0DBF8013E052E07D8CD
:10468000DFE806F00E0B181D0E034FF00009C846B8
:104690002107C2D549F00049BFE7DDE91E89F7E7E8
:1046A000DDE91E831D9A23F4801302F2334243EAAC
:1046B0000259EDE7DFF87C914FF00008E8E76FF072
:1046C00000494FF0FF38E3E71B9B5A1C1B925B78B5
:1046D000302BF9D0002BA0D0012307931B9B08930C
:1046E0000023CDE905339B460A221B980578A5F1E6
:1046F0003003D9B2092926D92246394602F034FFBF
:10470000002832D000202B465C4604900246652BE0
:1047100001D0452B13D11CB9079B034399D000242A
:104720001B9E731C1B9373782B2B78D02D2B7BD067
:104730000027A3F13001092940F282801B96002551
:104740009EE00023C9E7BBF1080FD5BF0699059984
:1047500002FB013302FB013300F10100D4BF0693D9
:1047600005930BF1010B1B90BFE71B9B1A191B92C2
:104770001B5DBBF1000F36D004905C46A3F1300204
:10478000092A12D90122C2E71B9B5A1C1B925B7893
:104790000130302BF8D0A3F13102082A00F2DC847A
:1047A0001B9A0490002008920446303B00F101025D
:1047B00013D0049911440491224605190A21AA42F2
:1047C00013D12218082A04F1010404441BDC0699C1
:1047D0000A2202FB0133069300221B9B591C1B91EA
:1047E0005B781046CAE75846D3E7082A04DC069FE0
:1047F0004F4306970132E2E7571C102FDEBF059F9B
:104800004F430597F6E7102CDFBF05990A2202FBFC
:1048100001330593E0E70023049301227CE700279E
:10482000B31C1B93B37884E70127F9E7D082000813
:10483000448000080000F07F1B9B591C1B915B7893
:10484000302BF9D0A3F1310108293FF678AFA3F15D
:10485000300C1B9B09934FF00A0E1B9B591C1B919C
:104860005B78A3F13005092D35D9099D491B08292D
:1048700044F61F6502DC6545A8BF654607B16D4279
:10488000002C4CD1079901437FF4C7AE002A7FF476
:10489000E0AE692B26D023DC492B23D04E2B7FF4AE
:1048A000D8AE9C491BA801F061FE00283FF4D1AEB0
:1048B0001B9B1B78282B2CD197491EAA1BA801F003
:1048C00069FE052825D11F9BDDF8788043F0FF495C
:1048D00049F4E009A1E60EFB0C3CACF1300CBCE75E
:1048E0006E2BDCE78D491BA801F040FE00283FF449
:1048F000B0AE1B9B8A49013B1BA81B9301F036FEFF
:1049000010B91B9B01331B93DFF824924FF0000872
:1049100083E6844802F012FE804689467DE6049BC9
:104920000698EB1ABBF1000F08BFA346102C0793A3
:104930002646A8BF1026FEF793FB092C8046894621
:1049400013DD794B03EBC60353E9122302F082FE19
:10495000804605988946FEF783FB02460B46404693
:104960004946FEF741FA804689460F2C36DC079B04
:10497000002B3FF452AE22DD162B09DC6A4C04EB0F
:10498000C304D4E9000142464B4602F063FEC3E78C
:10499000079AC4F12503934220DB634DC4F10F0451
:1049A00005EBC40142464B46D1E9000102F052FE3C
:1049B000079B1C1B05EBC405D5E90023E5E7079B16
:1049C00016330BDB049B584A5D1B02EBC505D5E98A
:1049D00000234046494602F067FF9DE7079BA61B60
:1049E0001E44002E71DD16F00F030AD04E4901EB74
:1049F000C30142464B46D1E9000102F02BFE80463E
:104A0000894636F00F0650D0B6F59A7F27DD4FF075
:104A1000000BCDF810B0CDF820B0CDF818B022239F
:104A2000DFF80C91CAF800304FF00008089B002B0B
:104A30003FF4F3AD1C99504601F0FAFE069950463A
:104A400001F0F6FE0499504601F0F2FE0899504636
:104A500001F0EEFE5946504601F0EAFEDDE5002386
:104A60003611404649461F46012E21DC0BB18046D7
:104A700089462E4BA9F1547903EBC70742464B46B2
:104A8000D7E9000102F0E6FD294B0A460B4029490F
:104A90008B428046BBD8A1F580118B4286BFDFF8E0
:104AA00098904FF0FF3802F15479002305937EE08F
:104AB000F20707D51D4B03EBC703D3E9002302F030
:104AC000C9FD012301377610CEE7EED0764216F00D
:104AD0000F020AD0144B03EBC20340464946D3E908
:104AE000002302F0E1FE804689463611DDD01F2EFC
:104AF00024DD4FF0000BCDF810B0CDF820B0CDF88C
:104B000018B022234FF000084FF00009CAF8003017
:104B10008CE700BF16800008588000080E8000084F
:104B20009C8100086984000890830008688300085D
:104B30000000F07F0000A07CFFFFEF7F16F0100365
:104B400018BF6A23B34F0593404649460023F20736
:104B500004D5D7E9002302F07DFD0123761007F18B
:104B60000807F4D10BB180468946059BBBB1C9F358
:104B70000A53C3F16B03002B494610DD1F2B40F392
:104B80002881342BDEBF203B4FF0FF3202FA03F3C3
:104B90004FF00008CCBF4FF05C7903EA0109002216
:104BA00000234046494602F0BDFF0028A1D1069BE4
:104BB0000093089923465A46504601F0A5FE0890F6
:104BC00000283FF424AF049B5D1B079B002BB4BF60
:104BD0002B4600230E93079B4FF0000B23EAE37351
:104BE0001693CDF810B0089B5046596801F0E0FDCF
:104BF000069000283FF413AF089B1A69023203F1B4
:104C00000C0192000C30FEF7F5FD1EAB01931DABBD
:104C1000009342464B465046CDE90A8902F0AEF970
:104C20001C9000283FF4FBAE0121504601F004FF28
:104C30000490034600283FF4F2AE1D9D1E9A002DFD
:104C4000ABBF0E9B169B169C0E9EACBFEE185C1B5A
:104C5000059BED1A1544704B013D9D42C2F1360291
:104C600080F2C9805B1B1F2BA2EB03024FF00107F0
:104C700000F3B68007FA03F30F930025B718059BDE
:104C8000BE4214441C443346A8BF3B46A342A8BFBF
:104C90002346002BC2BFFF1AE41AF61A0E9B002B04
:104CA00017DD04991A46504601F082FF049000284F
:104CB0003FF4B5AE01461C9A504601F0D3FE099070
:104CC00000283FF4ACAE1C99504601F0B1FD099BA1
:104CD0001C93002F00F39380079B002B08DD169A8E
:104CE0000699504601F064FF069000283FF497AE05
:104CF000002C08DD06992246504601F0B3FF0690CD
:104D000000283FF48CAE002E08DD04993246504650
:104D100001F0A8FF049000283FF481AE069A1C9988
:104D2000504602F027F8834600283FF478AE00246E
:104D3000C3680499C4600D9302F000F8A04271DAD0
:104D40000D9B53EA080340F09780C9F31303002B2F
:104D500040F0928029F000431B0D1B05B3F1D66F84
:104D600040F28A80DBF8143023B9DBF81030012BD5
:104D700040F3828059460122504601F073FF0499A6
:104D8000834601F0DBFF002876DD0599234A4B4678
:104D9000002900F0928002EA0901B1F1D66F00F318
:104DA0008C80B1F15C7F7FF7ACAE1D4A0023CDE96A
:104DB00014324046DDE91423494602F04BFC0B4611
:104DC000034308BF22238046894608BFCAF8003043
:104DD00030E64FF0FF3202FA03F303EA0808DEE69A
:104DE000C5F17F4505F57F0505F57B45E23507FAF9
:104DF00005F50F9742E7012300250F933EE71C9925
:104E00003A46504601F02EFF1C9000287FF464AF14
:104E100005E600BF7080000802FCFFFF0000F07F85
:104E200000005039CDF8249066D10D9AC9F31303D0
:104E30005AB39D4A93422CD1059B404603B39B4AEB
:104E40004B461A40B2F1D46F4FF0FF311BD8120D10
:104E5000C2F16B0301FA03F398421AD1944B099AF9
:104E60009A4202D101303FF4DAAD904B099A1A40D0
:104E700002F580194FF00008059B002B95D1D9E56C
:104E80004FF0FF33E8E70B46E6E753EA08033FF449
:104E90007CAFE5B1099B1D42EED00D9B059A4046C3
:104EA0004946C3B1FFF754FB02460B46DDE90A0150
:104EB000FDF79AFF80468946DEE71340A3F580138D
:104EC0006FEA13596FEA09594FF0FF38D4E70F9B87
:104ED00013EA080FE0E7FFF73BFB02460B46DDE96C
:104EE0000A01FDF77FFF002200238046894602F079
:104EF00019FE0028C0D004E60499584602F09AF83A
:104F000000224FF0804306460F4602F01FFE0028A5
:104F100075D00D9B002B47D0664F0026654D099B31
:104F200023F000431B0D1B050F930F9A624B9A420F
:104F300040F0CA80DDE90A23CDE91423099BA3F1DF
:104F400054794046494601F09FFF02460B463046E1
:104F5000394602F07FFB42464B46FDF745FF0B46C4
:104F60005249564A1940914280465ED90B9B02F144
:104F70005472934203D10A9B01333FF450ADDFF8E2
:104F800030914FF0FF381C99504601F051FC0699C2
:104F9000504601F04DFC0499504601F049FC594639
:104FA000504601F045FC1EE6B8F1000F19D1099BEF
:104FB000C3F31303E3B93F4B00223046394602F0F6
:104FC000BBFDC8B93E4B00223046394602F042FBD9
:104FD00004460D4605F1004318941993DDE918675E
:104FE0009DE7B8F1010F03D1099B002B3FF489AD78
:104FF000344F0026002491E70D9C314DEAE7304BF9
:1050000000223046394602F025FB0D9B04460D4632
:1050100033B901F1004310901193DDE910677EE789
:1050200002460B46CDE91023F7E703F15479059BBF
:10503000002BA8D129F000430F9A1B0D1B059A42A3
:10504000A1D12046294602F0FDFDFEF755F80246A3
:105050000B4620462946FDF7C5FE0D9AC9F31303FA
:1050600043EA0803134304460D4668D00AA3D3E974
:10507000002302F061FD00287FF4DCAC08A3D3E933
:1050800000232046294602F075FD00283FF47BAF3F
:10509000D0E400BFAFF300809535A094FFFFDF3F61
:1050A00035E5AF350000E03FFFFF0F000000F07F67
:1050B000FFFFEF7F0000F03F0000E07FFFFF9F7CDD
:1050C0000000E03F0000F0BF059B13B30F9BB3F15E
:1050D000D46F1ED826A3D3E900232046294602F028
:1050E00035FD90B12946204602F08CFD012838BFDD
:1050F0000120FDF7B5FF0D9B04460D46D3B901F124
:10510000004312901393DDE912670F9A07F1D663FB
:105110009F1ADDE90A0101F0B7FE02460B46304650
:10512000394602F097FADDE90A23FDF75DFE804675
:1051300089467CE702460B46CDE91223E3E70EA33E
:10514000D3E9002302F0F8FC9FE700230C93179AA1
:105150001B9B1360FFF765BA652B3FF45CAB452BD7
:105160003FF459AB0122FFF78DBB00BFAFF30080C6
:105170000000C0FFFFFFDF419535A094FFFFCF3F48
:10518000014BFFF709BA00BFD4030020012B2DE922
:10519000F047864601D0242B06D9FEF725FB1623BF
:1051A00003600020BDE8F0873A4E8C4660461CF84C
:1051B000014BA55D15F00805F8D12D2C33D19CF8D5
:1051C00000404FF0010800F1020C002B5DD0102BC5
:1051D0000CD1302C0AD19CF8000000F0DF005828D8
:1051E0004ED19CF8014010230CF1020C08F100474D
:1051F000013F0025B7FBF3F9284603FB197AA4F118
:105200003006092E18D83446A34224DD002D1FDBBA
:1052100081451DD301D1A2451ADB00FB03400125C6
:105220001CF8014BEBE72B2C08BF9CF80040A8466C
:1052300008BF00F1020CC8E7A4F14106192E01D8FD
:10524000373CE1E7A4F16106192E04D8573CDBE7AF
:105250004FF0FF35E4E7002D08DA2223CEF80030C6
:105260003846002A9ED00CF1FF3107E0B8F1000F5C
:1052700000D04042002A95D0002DF4D1116091E772
:105280003024002BB2D10823B0E7302CA3D00A235E
:10529000ACE700BF99800008FFF778BF30B5141E57
:1052A00005469BB0184605DA8B232B604FF0FF3084
:1052B0001BB030BD4FF40273ADF80C3014BF04F1D5
:1052C000FF332346029305934FF6FF730091049139
:1052D000ADF80E3002461E9B6946284602F02EF8B5
:1052E000431CBCBF8B232B60002CE1D0009B002211
:1052F0001A70DDE707B5009313460A4601460348D6
:105300000068FFF7CBFF03B05DF804FB6C030020DF
:105310002DE9F74F03690C69A3420746C0F281806B
:10532000013C01F1140800F1140505EB840301931D
:1053300058F8243055F8242001339A424FEA840B60
:1053400008EB8409B2FBF3F631D34FF0000E404670
:10535000AC46F24650F8042B93B206FB03E34FEA47
:10536000134E9BB2AAEB0303120CDCF800A006FB61
:1053700002E213FA8AF34FEA124E1FFA82FADCF8BD
:105380000020CAEB124202EB23429BB243EA0243E3
:1053900081454CF8043B4FEA224ADBD255F80B30EA
:1053A0002BB9019B043B9D421A462ED33C613846E3
:1053B00001F0C4FC002824DB013628464FF0000C25
:1053C00058F8042BD0F800E093B2ACEB0303120CB6
:1053D00013FA8EF3C2EB1E4202EB23429BB243EA66
:1053E0000243C14540F8043B4FEA224CE8D255F84D
:1053F000242005EB840322B9043B9D421A460AD3BC
:105400003C61304603B0BDE8F08F1268043B002ACF
:10541000CCD1013CC7E71268043B002AF0D1013C23
:10542000EBE70020EEE700002DE9F04F446A99B069
:1054300016461F46CDE90467DDF89480054674B929
:10544000102001F047F90246686220B9A84BEA2112
:10545000A848FBF783FCC0E901440460C4606B6AA0
:10546000196851B15A684A60012393408B602846FD
:1054700001F0DEF96B6A00221A603B1EB9BF23F00F
:10548000004305930023C8F80030DDF814909A4BD0
:10549000BCBF0122C8F8002033EA090319D1249ABD
:1054A00042F20F731360C9F31303334300F0818595
:1054B000269B53B9914B22E0914B08930833269ACF
:1054C0001360089819B0BDE8F08F8C4B0893033334
:1054D000F5E7DDE90434CDE90C34DDE90C01002207
:1054E000002302F01FFB804658B1249A0123136069
:1054F000269B002B00F05A8582481860431E0893B3
:10550000DFE716AB019317AB00932846DDE90C23C8
:1055100001F034FDC9F30A548246002C7ED00D9B65
:10552000CDF84C80C3F31303DDE90C0143F07F5148
:1055300041F44011A4F2FF34734B0022FDF752FCFA
:1055400065A3D3E9002302F085F865A3D3E900231E
:10555000FDF74AFC064620460F46FDF791FD62A383
:10556000D3E9002302F076F802460B46304639466E
:10557000FDF73AFC06460F4602F01CFB002281466E
:1055800000233046394602F0D7FA48B14846FDF7C5
:1055900077FD32463B4602F0C5FA08B909F1FF39FA
:1055A000B9F1160F57D8594B03EBC903D3E90023C0
:1055B000DDE90C0102F0C0FA00284ED009F1FF39F4
:1055C00000230F93169B1C1B631E099345BFC4F158
:1055D00001030693002300234CBF09930693B9F1FE
:1055E000000F3CDB099BCDF838904B440993002316
:1055F0000A93229B092B00F28D80052BC4BF043B2C
:105600002293229BA3F10203CCBF00240124032B8D
:1056100000F28C80DFE803F02D4F4D5BDDE916438F
:105620001C4404F23243202BC3BFC3F1400304F2F5
:10563000124009FA03F3C3F12003C6BF26FA00F0B3
:10564000184306FA03F0FDF70BFD0123A1F1F871F1
:10565000013C139370E70123B3E70F90B2E7069B79
:10566000A3EB09030693C9F100030A9300230E93E9
:10567000BFE700230B93239B002B5ADC4FF0010B59
:10568000CDF808B05B46CDF88CB0686A0022426065
:10569000042202F114069E42416850D9284601F0C6
:1056A00087F8089000284ED1194B02464FF4D57167
:1056B000CEE60123DEE700230B93239B09EB030BCC
:1056C0000BF10103012B0293B8BF0123DDE7012396
:1056D000F2E700BFAFF3008061436F63A787D23F5B
:1056E000B3C8608B288AC63FFB799F501344D33FD1
:1056F000A6810008BD8100080000F07FA28100089B
:10570000998100081A8000080000F83F9083000883
:10571000398200080124002322930B944FF0FF3BB1
:105720000022CDF808B012232392AEE701230B9399
:10573000F4E7DDF88CB0CDF808B05B46A5E70131A1
:1057400041605200A5E76B6A089A1A60029B0E2B13
:1057500000F2A880002C00F0A580B9F1000F34DD24
:105760009A4A09F00F0302EBC303D3E9003419F49A
:10577000807FCDE910344FEA291416D0944BDDE92F
:105780000C01D3E9082302F08FF8CDE9040104F0FD
:105790000F0403278E4E54B9DDE91023DDE904011F
:1057A00002F082F8CDE9040129E00227F2E7E107DF
:1057B00008D5DDE91001D6E9002301F04BFFCDE962
:1057C0001001013764100836E5E700F0A580C9F143
:1057D00000047E4B7E4E04F00F0203EBC203D3E9BC
:1057E0000023DDE90C0101F035FFCDE904012411AE
:1057F00000230227002C40F08480002BD2D10F9B85
:10580000002B00F08B80DDE90434CDE91034DDE9B4
:105810001001704B002202F08FF900287ED0029B0D
:10582000002B7BD0BBF1000F38DDDDE910016A4BA6
:10583000002201F00FFFCDE9040109F1FF38013723
:105840005C463846FDF71CFCDDE9042301F002FF4D
:10585000624B0022FDF7C8FAA1F15076CDE91001A4
:105860001196002C5DD1DDE904015D4B0022FDF7AE
:10587000B9FA02460B46CDE90423109A334602F0EA
:1058800079F9002840F09E82DDE90401109A06F1C2
:10589000004302F051F9002840F09282DDE90C3417
:1058A000CDE90434179B002BC0F25381B9F10E0FE0
:1058B00000F34F81454B03EBC903D3E90034CDE935
:1058C0000634239B002B80F2DB80029B002B00F32D
:1058D000D78040F07482424B0022DDE9060101F0DE
:1058E000B9FEDDE9042302F03BF9029C26460028BC
:1058F00040F04A82089F312307F8013B09F1010972
:1059000046E2E20705D5D6E9002301F0A3FE013700
:105910000123641008366DE7022770E7029CC84631
:105920008FE70899294B214412910B9903EBC4038B
:10593000DDE9106753E90223002955D029490020E9
:1059400001F0B2FF3B463246FDF74CFACDE91001BB
:10595000089FDDE9040102F02DF90446FDF790FBF4
:1059600002460B46DDE90401FDF73CFA30340246FD
:105970000B46CDE9042307F8014BDDE9102302F0C3
:10598000DBF8002874D1DDE9042312490020FDF77B
:1059900029FADDE9102302F0CFF8002840F0B680A4
:1059A000129B9F423FF47AAFDDE910010A4B0022BF
:1059B00001F050FE084BCDE910010022DDE90401A1
:1059C00001F048FECDE90401C3E700BF9083000861
:1059D000688300080000F03F0000244000001C40E5
:1059E000000014400000E03F3046394601F032FE2E
:1059F000CDE91001129B089C1493DDE9040102F02B
:105A0000D9F81590FDF73CFB02460B46DDE9040191
:105A1000FDF7E8F9159B303304F8013B129B9C42DB
:105A200006460F464FF0000224D1B24BDDE91001CB
:105A3000FDF7DAF902460B463046394602F09AF88D
:105A4000002862D1DDE91023AA490020FDF7CAF938
:105A500002460B463046394602F06EF800283FF405
:105A60001DAF149F7B1E149317F8013C302BF8D008
:105A7000C1463AE0A04B01F0EDFDCDE90401BCE7E1
:105A8000089FDDE90623DDE9040101F00DFF02F0C6
:105A900091F80446FDF7F4FADDE9062301F0DAFD9A
:105AA00004F130060B460246DDE90401FDF79AF9E0
:105AB00007F8016B089E029BBE1BB3423AD1024617
:105AC0000B46FDF791F902460B46CDE90223DDE9CD
:105AD000062302F04FF858BBDDE90623DDE9020199
